:020000040800F2
:1000000090040020B5110008E5010008E701000890
:10001000EB010008EF010008F301000800000000F8
:10002000000000000000000000000000F7010008D0
:10003000F901000800000000FB010008FD010008B4
:10004000CF110008CF110008CF110008CF11000810
:10005000CF110008CF110008CF110008CF11000800
:10006000CF110008CF110008CF110008CF110008F0
:10007000CF110008CF110008CF110008CF110008E0
:10008000CF110008CF110008CF110008CF110008D0
:10009000CF110008CF110008CF110008CF110008C0
:1000A000CF110008CF110008CF110008CF110008B0
:1000B000CF110008CF11000800000000CF11000888
:1000C000CF1100080000000000000000CF11000860
:1000D00000000000F70E0008E31000080000000018
:1000E000CF110008CF110008CF11000800F002F86E
:1000F00000F03FF80AA090E8000C82448344AAF183
:100100000107DA4501D100F034F8AFF2090EBAE880
:100110000F0013F0010F18BFFB1A43F0010318473B
:10012000342D0000542D0000103A24BF78C878C147
:10013000FAD8520724BF30C830C144BF04680C60ED
:10014000704700000023002400250026103A28BF35
:1001500078C1FBD8520728BF30C148BF0B60704739
:10016000642901F0AB87002070471FB51FBD10B593
:1001700010BD02F0ABF81146FFF7F7FF00F008F8EA
:1001800002F0C9F803B4FFF7F2FF03BC00F018FE59
:1001900000B585B000F07EFC00F0BEF900200190B3
:1001A00002900390049000F03CF964220BA101A896
:1001B00001F03CFF0120022301AA00210090084623
:1001C00000F0F0FB1022002101A801F0B3FF4FF472
:1001D0007A7000F0C8FD002005B000BD546573744E
:1001E00020256400704700BFFEE700BFFEE700BFA8
:1001F000FEE700BFFEE7704770477047704700009A
:100200000CB50020019000906C48006840F48030EC
:100210006A49086000BF6948006800F40030009037
:100220000198401C0190009818B90198B0F5A06F92
:10023000F1D16248006800F4003010B10120009054
:1002400001E0002000900098012843D15C4800683C
:1002500040F010005A4908600846006820F003008A
:1002600008600846006840F0020008605348406893
:10027000524948600846406848600846406840F473
:10028000806048600846406820F47C10486008465A
:10029000406840F4E81048600846006840F080700C
:1002A000086000BF4548006800F000700028F9D0E1
:1002B0004248406820F003004049486008464068D2
:1002C00040F00200486000BF3C48406800F00C006D
:1002D0000828F9D10CBD10B5FFF792FF10BD10B57D
:1002E0003648006840F0010034490860084640681C
:1002F000344908403149486008460068324908409E
:100300002E4908600846006820F4802008600846EE
:10031000406820F4FE0048604FF41F008860FFF73B
:10032000DAFF4FF000602949086010BD10B50021C8
:1003300000200022214B5B6803F00C0121B104294D
:1003400006D0082928D107E0214B224C236027E062
:100350001F4B204C236023E0184B5B6803F47010A4
:10036000164B5B6803F48032022303EB904022B902
:10037000194B4343174C23600DE0104B5B6803F4AB
:10038000003323B1144B4343124C236003E0104B62
:100390004343104C236003E00D4B0E4C236000BF21
:1003A00000BF064B5B68C3F303130C4CE15C094BC5
:1003B0001B68CB40074C236010BD000000100240BA
:1003C000002002400000FFF8FFFFF6FE08ED00E00D
:1003D00000127A000000002000093D000400002007
:1003E00010B50446204600F01DFC10BD10B50446B3
:1003F000204600F017FC10BD70B504460D46B02134
:1004000001EBE501C8B2FFF7EBFF102141EA141040
:10041000FFF7E6FF04F00F0141F00100FFF7E0FFF6
:1004200070BD70B50646002415E004F1B001C8B2F5
:10043000FFF7D6FF0120FFF7D3FF1020FFF7D0FF13
:10044000002504E03046FFF7D1FF681CC5B2802DBF
:10045000F8DB601CC4B2082CE7DB70BD70B500246B
:1004600015E004F1B001C8B2FFF7BAFF0120FFF7B1
:10047000B7FF1020FFF7B4FF002504E00020FFF7CE
:10048000B5FF681CC5B2802DF8DB601CC4B2082C17
:10049000E7DB70BD70B50446B02101EBE401C8B2E2
:1004A000FFF79EFF0120FFF79BFF1020FFF798FF4B
:1004B000002504E00020FFF799FF681CC5B2802DDD
:1004C000F8DB70BD2DE9F04104460D461646B0211B
:1004D00001EBE501C8B2FFF783FF0120FFF780FFC2
:1004E0001020FFF77DFF274604E00020FFF77EFF86
:1004F000781CC7B2B742F8DBBDE8F08109E040F2F2
:10050000375100BF0A00A1F1010399B2FAD1421E8E
:1005100090B20028F3D1704710B5AE20FFF760FF0E
:100520000020FFF75DFF1020FFF75AFF4020FFF784
:1005300057FF8120FFF754FFCF20FFF751FFA12085
:10054000FFF74EFFC820FFF74BFFA620FFF748FF3D
:10055000A820FFF745FF3F20FFF742FFD320FFF71A
:100560003FFF0020FFF73CFFD520FFF739FF802039
:10057000FFF736FFD920FFF733FFF120FFF730FFF9
:10058000DA20FFF72DFF1220FFF72AFFDB20FFF70D
:1005900027FF4020FFF724FF2020FFF721FF022044
:1005A000FFF71EFF8D20FFF71BFF1420FFF718FF3A
:1005B000A420FFF715FFA620FFF712FFAF20FFF7DB
:1005C0000FFF0020FFF72DFF00210846FFF714FF63
:1005D00010BD70B505460C462046E11704EB51717D
:1005E000C910A4EBC10201219140CEB2B02101EBB0
:1005F000E401C8B2FFF7F4FE102141EA1510FFF73D
:10060000EFFE05F00F00FFF7EBFE3046FFF7EEFEC2
:1006100070BD70B504460D461646B02101EBE501EC
:10062000C8B2FFF7DDFE102141EA1410FFF7D8FE33
:1006300004F00F00FFF7D4FE3046FFF7D7FE70BD81
:100640002DE9F04707460C4690461D46DDF820A0F0
:10065000E1103846FFF7D0FE3E4613E0A146E11711
:1006600004EB5171C910A4EBC10201219140C8B241
:10067000FFF7BCFEBAF1010F02D13220FFF73EFFB7
:10068000701CC6B24645E9DDE9103846FFF7B4FEF6
:100690003E4613E0A946E91705EB5171C910A5EBD9
:1006A000C10201219140C8B2FFF7A0FEBAF1010FCB
:1006B00002D10520FFF722FF701CC6B24645E9DDD6
:1006C000BDE8F0872DE9F04704468846154699466F
:1006D0004FF0000A002600271FE0E85D203800F0F8
:1006E000FF0A7E2C04DD002408F1010000F0FF0861
:1006F00041462046FFF780FE002608E00AEB4A014B
:1007000009EB4101885DFFF771FE701CC6B2062E31
:10071000F4DBA01DC4B2781CC7B2E85D0028DCD1B0
:10072000BDE8F0872DE9F04706460F46904699460A
:1007300000250024A24630E018F80A002038C5B28F
:10074000782E02DD0026781CC7B239463046FFF706
:1007500053FE002406E009EB0511085DFFF746FE95
:10076000601CC4B2082CF6DB07F10800C1B23046A9
:10077000FFF742FE002407E009EB05112144087A47
:10078000FFF734FE601CC4B2082CF5DB06F108004C
:10079000C6B20AF1010000F0FF0A18F80A000028AA
:1007A000CAD1BDE8F0872DE9F05F82460F4690463A
:1007B0009946DDF828B00024002601256DE00024CC
:1007C000012513E019F8040018F8061088420BD12F
:1007D00009EB04004178701C18F80000814203D135
:1007E000C4EBC400450005E0A01CC4B219F8040025
:1007F0007F28E7DC00BFBAF1760F03DD4FF0000A77
:10080000781CC7B239465046FFF7F6FD012D21D0BE
:1008100039465046FFF7F0FD002407E01BF80500BD
:10082000FFF7E4FD681C85B2601CC4B20E2CF5DB3A
:10083000781CC1B25046FFF7DFFD002407E01BF82B
:100840000500FFF7D3FD681C85B2601CC4B20E2CF6
:10085000F5DB1CE0701CC6B239465046FFF7CCFDF4
:10086000002404E00020FFF7C1FD601CC4B2102C7E
:10087000F8DB781CC1B25046FFF7BEFD002404E04F
:100880000020FFF7B3FD601CC4B2102CF8DB0AF1A6
:100890000E0000F0FF0AB01CC6B218F806000028CF
:1008A0008DD1BDE8F09F2DE9F05F82460F4690465E
:1008B0009946DDF828B00024002501266CE00024CC
:1008C000012611E019F8040018F80510884209D132
:1008D00009EB0400407808EB05014978884201D112
:1008E000260105E0A01CC4B219F804007F28E9DC49
:1008F00000BFBAF1760F03DD4FF0000A781CC7B2D3
:1009000039465046FFF778FD012E22D03946504631
:10091000FFF772FD002407E01BF80600FFF766FDF5
:10092000701C86B2601CC4B2102CF5DB07F1080005
:10093000C1B25046FFF760FD002407E01BF8060037
:10094000FFF754FD701C86B2601CC4B2102CF5DB9E
:100950001CE0681CC5B239465046FFF74DFD002427
:1009600004E00020FFF742FD601CC4B2102CF8DB4D
:10097000781CC1B25046FFF73FFD002404E0002080
:10098000FFF734FD601CC4B2102CF8DB0AF1100034
:1009900000F0FF0AA81CC5B218F8050000288ED187
:1009A000BDE8F09F2DE9FC47064688461546994666
:1009B0000A9F002438E0285D7F2817DD285D8DF828
:1009C0000400281940788DF8050000208DF80600F5
:1009D0002C482D4B01AA414600903046FFF763FF9B
:1009E00006F11000C6B2A01CC4B21DE0285D8DF84F
:1009F000040000208DF80500012F09D1234B01AA26
:100A000041463046FFF78EFE06F10800C6B209E007
:100A1000032F07D11E4B01AA41463046FFF752FE75
:100A2000B01DC6B2601CC4B2285D0028C3D1BDE8A9
:100A3000FC872DE9F04180460F461646002400252C
:100A400039464046FFF7D8FC00BF06E0705DFFF76F
:100A5000CDFC681CC5B2601CC4B2102CF6DB07F1DB
:100A60000800C1B24046FFF7C7FC002406E0705DF5
:100A7000FFF7BCFC681CC5B2601CC4B2102CF6DBCE
:100A8000BDE8F081812500085425000841280008B0
:100A90002C23000808B50121102000F033FF4FF48B
:100AA000C050ADF8000010208DF8030003208DF831
:100AB000020069468A4800F069FC01208949086003
:100AC0008949C1F8AC0108BD10B58548406820F4DB
:100AD0007040834948600846406840F44050486090
:100AE00001208049091F08607F49C1F8B001042036
:100AF00000F015F900207B49091F0860042000F070
:100B00000EF900207849C1F8B00110BD10B5744845
:100B1000406820F47040724948600846406840F4DC
:100B20004050486000206F4908606F49C1F8AC012F
:100B3000042000F0F4F801206A4908606A49C1F80D
:100B4000AC01042000F0EBF810BD10B5002464489F
:100B5000406820F47040624948600846406840F4AC
:100B60000040486001205F49091F086000F0D7F885
:100B700001205D49C1F8B00100F0D1F807E0601C28
:100B8000C4B2FA2C03DDFFF7C1FF012010BD5548A8
:100B9000843800680028F2D15249086000BFF5E7A8
:100BA00010B500204F4908604D48406820F470405F
:100BB0004B4948600846406840F440504860002077
:100BC0004949C1F8AC01022000F0A9F801204549CB
:100BD0000860022000F0A3F800204349C1F8B001EA
:100BE00010BD10B500203F4908603D48406820F422
:100BF00070403B4948600846406840F440504860B7
:100C000001203949C1F8AC01022000F088F8012028
:100C100034490860022000F082F800203249C1F80F
:100C2000B00110BD70B504462D48406820F47040F6
:100C30002B4948600846406840F440504860002016
:100C400028490860002517E0E0092649091F0860C7
:100C50006006040E022000F062F801202249C1F86B
:100C6000B001022000F05BF800201E49086002205D
:100C700000F055F8681CC5B2082DE5DB70BD70B5F5
:100C8000054600241648406820F470401449486026
:100C90000846406840F400404860002616E0002006
:100CA00010490860022000F03AF801200E49C1F80E
:100CB000B0016006040E0B488438006808B1601C5F
:100CC000C4B2012000F02BF8701CC6B2082EE6DB7F
:100CD00015B9FFF786FF01E0FFF762FF204670BD00
:100CE00000100140B00122420000224210B56FF016
:100CF000040000F0CCFA2E4800682E49B0FBF1F059
:100D00002D4908700846007800EB4001C1EBC01087
:100D10004FF6FF7101EAC0002849088010BD014666
:100D2000254A12784A434FF0E0235A6100229A6123
:100D30001A46126942F001021A6100BF4FF0E02228
:100D4000106900F001021AB100F48032002AF5D0D7
:100D50004FF0E022126922F001024FF0E0231A6105
:100D600000229A6170470146144A12884A434FF0A4
:100D7000E0235A6100229A611A46126942F0010288
:100D80001A6100BF4FF0E022106900F001021AB1B1
:100D900000F48032002AF5D04FF0E022126922F0F0
:100DA00001024FF0E0231A6100229A6170470000AF
:100DB0000000002000127A0014000020160000201D
:100DC00000BF704700BF7A4A128802F04002002A32
:100DD000F9D0C2B2764B1B1D1A807047F0B58BB0AC
:100DE00007460C4615461E460121084600F07DFDCB
:100DF000384600F0EFFF0094019500200290039622
:100E000004908020059000200690079008904FF4F1
:100E10004050099000200A906946384601F07CF85D
:100E20000121384601F0A3F80BB0F0BD10B586B033
:100E30000446012144F2040000F064FD4FF4007008
:100E4000ADF8140003208DF8160018208DF8170057
:100E500005A9584800F09AFA4FF48060ADF81400E4
:100E600004208DF8170005A9524800F08FFA2520BC
:100E70008DF8000003208DF801008DF8020001209C
:100E80008DF80300684600F0B8F901940020ADF831
:100E90000800ADF80A00ADF80C00ADF810000C2009
:100EA000ADF80E0001A9424800F0D3FD002240F247
:100EB00026613F4800F065FE002240F225513C4883
:100EC00000F05FFE012240F22441394800F059FE53
:100ED00001224021364800F079FE0121344800F01B
:100EE00044FE4FF49673344A3149091D3348FFF7E5
:100EF00075FF06B010BD10B5002440F225512C48F6
:100F000000F024FF60B12A4800F0A0FEC1B22C48D6
:100F100002880088401C2A4B18802748815418E01A
:100F200040F22441224800F011FF90B1204800888F
:100F30001F48001D00880021204801F018F80120FA
:100F4000204908701D4801F029F8C0F596701C4929
:100F5000088010BD10B504461A48007888B1A04733
:100F60000020184908704FF49671134801F0EAF810
:100F70004FF49671114801F00FF801210F4800F06D
:100F8000F6FF10BD10B50246002000BF0CE000BF08
:100F9000074B1B8803F04003002BF9D0135C044C73
:100FA000241D2380431C98B28842F0DB10BD000052
:100FB000003801400008014038000020580002407D
:100FC0001C0000201E000020F0B58BB007460C4628
:100FD00015461E460121084600F087FC384600F001
:100FE000F9FE009401950020029003960490802061
:100FF000059000200690079008904FF4405009900B
:1010000000200A906946384600F086FF01213846E4
:1010100000F0ADFF0BB0F0BD10B586B00446012165
:10102000042000F06FFC0121480400F078FC04204B
:10103000ADF8140003208DF8160018208DF8170065
:1010400005A9564800F0A2F90820ADF814000420C4
:101050008DF8170005A9514800F098F926208DF861
:10106000000002208DF801008DF8020001208DF8AB
:101070000300684600F0C1F801940020ADF80800B4
:10108000ADF80A00ADF80C00ADF810000C20ADF87A
:101090000E0001A9424800F0DCFC002240F226616B
:1010A0003F4800F06EFD002240F225513C4800F020
:1010B00068FD012240F22441394800F062FD01221E
:1010C0004021374800F082FD0121354800F04DFDF8
:1010D000C823344A3249091D3348FFF775FF06B06B
:1010E00010BD10B5002440F225512D4800F02EFE11
:1010F00060B12B4800F0AAFDC1B22C4802880088DC
:10110000401C2A4B1880274881541BE040F22441A0
:10111000234800F01BFEA8B1214800882048001D8C
:10112000008801202249087000211F4800F01FFF9D
:1011300001201F4908701C4800F030FFC0F1C800B2
:101140001A49088010BD10B504461948007878B1D6
:10115000A047002016490870C821124800F0F2FF8D
:10116000C821114800F018FF01210F4800F0FFFED0
:1011700010BD10B50246002000BF0CE000BF084BB8
:101180001B8803F04003002BF9D0135C044C241D92
:101190002380431C98B28842F0DB10BD0008014058
:1011A00000440040640100206C0002402000002048
:1011B000220000200948804709480047FEE7FEE773
:1011C000FEE7FEE7FEE7FEE7FEE7FEE7FEE7FEE7F7
:1011D00004480549034A054B70470000DF02000838
:1011E000ED000008900200209004002090020020F2
:1011F00031490143314A1160704770B50021002325
:101200000F22C47804B32D4C246804F4E064C4F5C0
:10121000E064210AC1F10403CA40447804FA03F1EE
:101220008478144021430901254C0678A15504789F
:1012300004F01F050124AC4005786D11AD0005F1E7
:10124000E025C5F8004109E0047804F01F050124F9
:10125000AC401C4D0678761145F8264070BD1A4A00
:101260000A400243154B1B1F1A60704739B1134ADD
:10127000121D12680243114B1B1D1A6006E00F4A33
:10128000121D126882430D4B1B1D1A607047042803
:1012900008D14FF0E021096941F004014FF0E0224C
:1012A000116107E04FF0E021096921F004014FF0DE
:1012B000E0221161704700000000FA050CED00E02B
:1012C00000E400E080E100E080FFFF1F10B504466D
:1012D000CC48844208D10121042000F02DFB0021DC
:1012E000042000F029FB46E0C748844208D10121D0
:1012F000082000F021FB0021082000F01DFB3AE04F
:10130000C248844208D10121102000F015FB0021C1
:10131000102000F011FB2EE0BD48844208D10121CD
:10132000202000F009FB0021202000F005FB22E036
:10133000B848844208D10121402000F0FDFA002184
:10134000402000F0F9FA16E0B348844208D10121A8
:10135000802000F0F1FA0021802000F0EDFA0AE090
:10136000AE48844207D10121801500F0E5FA002142
:10137000A01500F0E1FA10BD10B50121084600F0FB
:10138000DBFA0021012000F0D7FA10BD2DE9F04171
:10139000024600250026002000230024002791F8A3
:1013A00003C00CF00F0591F803C00CF0100CBCF159
:1013B000000F03D091F802C04CEA050591F800C077
:1013C000BCF1000F31D0146800202BE04FF0010C6D
:1013D0000CFA00F3B1F800C00CEA03069E4220D1DB
:1013E00083004FF00F0C0CFA03F7BC4305FA03FC23
:1013F0004CEA040491F803C0BCF1280F06D14FF069
:10140000010C0CFA00FCC2F814C00AE091F803C009
:10141000BCF1480F05D14FF0010C0CFA00FCC2F8EA
:1014200010C0401C0828D1D31460B1F800C0BCF132
:10143000FF0F34DD546800202EE000F1080C4FF05F
:10144000010808FA0CF3B1F800C00CEA03069E424A
:1014500021D183004FF00F0C0CFA03F7BC4305FABF
:1014600003FC4CEA040491F803C0BCF1280F05D139
:1014700000F1080C08FA0CF8C2F8148091F803C0C7
:10148000BCF1480F07D100F1080C4FF0010808FA31
:101490000CF8C2F81080401C0828CED35460BDE878
:1014A000F0814FF6FF710180022181700421C1702B
:1014B00070470246002093680B400BB1012000E00A
:1014C000002070470146886880B2704702460020BD
:1014D000D3680B400BB1012000E0002070470146AB
:1014E000C86880B2704701617047416170470AB1B6
:1014F000016100E041617047C16070474FF4803284
:101500000A43826181618261826982697047024611
:101510000020434B18684FF68073184040EA0210D1
:1015200008433F4B186070473E49C8617047F0B5AB
:101530000A46002300240021002500F00046B6F1F1
:10154000004F02D1364EF16901E0354E7168C0F3AB
:10155000034583B200F44016B6F5401F08D121F0D0
:1015600070612F4E766826F070662D4F7E6012E017
:1015700000F48016B6F5801F06D1032606FA05F49E
:10158000A14341F0706106E0460D360103FA06F60C
:10159000B14341F0706122B1460D360103FA06F6FF
:1015A000314300F00046B6F1004F02D11C4EF1610C
:1015B00001E01B4E7160F0BD30B500228B071C0F9F
:1015C0000F2303FA04F2164B08338C1053F824301F
:1015D0009343134C08348D1044F8253023468C1067
:1015E00053F824308C07240F00FA04F423430C4CE6
:1015F00008348D1044F8253030BD0A49DC310860CC
:101600007047000000080140000C0140001001403C
:101610000014014000180140001C0140002001405E
:101620000000014000002042DF48006840F0010057
:10163000DD49086008464068DC490840DA494860EE
:1016400008460068DA490840D7490860084600683B
:1016500020F4802008600846406820F4FE004860BE
:101660004FF41F0088607047CF49096821F480312A
:10167000CD4A11601146096821F480211160B0F54E
:10168000803F03D0B0F5802F0ED106E0C64909682F
:1016900041F48031C44A116007E0C349096841F44C
:1016A000A021C14A116000E000BF00BF704710B523
:1016B00001460022002300204A11012A02D1BA4C1F
:1016C000236806E0022A02D1B74C236A01E0B64C37
:1016D000636A01F01F02012494401C400CB10120F8
:1016E00000E0002010BD38B5002000900024002547
:1016F00000BF3120FFF7DBFF05460098401C00903B
:101700000098B0F5A06F01D0002DF2D03120FFF786
:10171000CEFF08B1012400E00024204638BD014678
:101720000020A14A106820F0F80040EAC1001060D3
:101730007047A04908607047024600209A4B5868DD
:1017400020F47C1042EA01031843974B586070471D
:1017500098490866704701460020934A506820F077
:1017600003000843506070478F48406800F00C0049
:101770007047014600208C4A506820F0F000084372
:101780005060704701460020874A506820F4E060AE
:1017900008435060704701460020834A506820F497
:1017A000605040EAC1005060704729B17E4A527AC9
:1017B00002437D4B5A7204E07B4A527A82437A4B51
:1017C0005A7270477B49D831086070470146002043
:1017D000754A506820F4404008435060704700212B
:1017E000714A20321170704A82F82010012802D00C
:1017F00004280AD104E001216B4A2032117005E06F
:101800000521694A2032117000E000BF00BF704717
:101810006949086070476449096A0143624A116274
:101820007047654944390860704730B5002100228F
:10183000002400235C4D6D6805F00C0121B10429E2
:1018400005D0082923D105E05C4D056022E05B4D01
:1018500005601FE0544D6D6805F47012524D6D68BF
:1018600005F48034022505EB92421CB9544D5543D2
:1018700005600BE04C4D6D6805F400351DB1504D11
:101880005543056002E04D4D5543056002E04B4D68
:10189000056000BF00BF444D6D6805F0F001090907
:1018A000484D6B5C0568DD4045603F4D6D6805F453
:1018B000E061090A434D6B5C4568DD4085603A4D47
:1018C0006D6805F46051C90A3E4D6B5C4568DD40AA
:1018D000C560354D6D6805F44041890B3A4D6B5C30
:1018E000C568B5FBF3F5056130BD29B12E4A5269D3
:1018F00002432D4B5A6104E02B4A526982432A4B22
:101900005A61704729B1284A92690243264B9A616D
:1019100004E0254A92698243234B9A61704729B1BA
:10192000214AD2690243204BDA6104E01E4AD2699F
:1019300082431D4BDA61704729B11B4AD2680243CA
:10194000194BDA6004E0184AD2688243164BDA6019
:10195000704729B1144A12690243134B1A6104E01B
:10196000114A12698243104B1A617047124940397B
:10197000086070470F49C86470470B49C8717047C9
:101980000948406A40F08070074948627047014644
:101990000020054A92680A400AB1012000E00020B8
:1019A0007047014988727047001002400000FFF83C
:1019B000FFFFF6FE000042428004424200127A001D
:1019C00000093D00230000203300002010B504462C
:1019D000FB48844209D101218803FFF7ADFF0021B4
:1019E0004FF48040FFF7A8FF32E0F648844209D167
:1019F00001214804FFF7ADFF00214FF40030FFF74D
:101A0000A8FF25E0F048844209D101218804FFF7AE
:101A1000A0FF00214FF48020FFF79BFF18E0EB4868
:101A2000844209D10121C804FFF793FF00214FF43C
:101A30000020FFF78EFF0BE0E548844208D101212A
:101A40000805FFF786FF00214FF48010FFF781FFA4
:101A500010BD2DE9F04786B005460E460024A2468B
:101A600000BFA1460027B08900B100BF2F462C8AD5
:101A70004CF6FF700440F08804432C82AC894EF68B
:101A8000F3100440B0883189084371890843044346
:101A9000AC81AC8A4FF6FF400440B0890443AC826D
:101AA00001A8FFF7C2FEC648874202D1DDF810A0A8
:101AB00001E0DDF80CA0A88900F4004040B10AEB79
:101AC000CA0000EB0A1031684900B0FBF1F807E0EA
:101AD0000AEBCA0000EB0A1031688900B0FBF1F88C
:101AE0006420B8FBF0F004012009642101FB108997
:101AF000A88900F4004040B1322000EBC900B0FBDF
:101B0000F1F000F00700044308E0322000EB091078
:101B10006421B0FBF1F000F00F0004432C8106B00B
:101B2000BDE8F0874FF41651016000218180C1802B
:101B300001810C21418100218181704710B502464D
:101B40000020108A4FF2FF0318400B884C88234373
:101B50008C882343CC8823431843108210BD002176
:101B6000018041808180C180704721B1828942F427
:101B70000052828104E082894DF6FF731A4082810F
:101B80007047F0B50346002400260025002040F6EB
:101B90006A17B94200D100BF1846C1F3421401F0E0
:101BA0001F06012707FA06F5012C01D10C3004E0CD
:101BB000022C01D1103000E014301AB107682F4315
:101BC000076002E00768AF430760F0BD1AB1838A7F
:101BD0000B43838202E0838A8B4383827047028AAD
:101BE0004FF6F0731A400282028A0A43028270475B
:101BF00082894FF2FF731A40828182890A4382816F
:101C0000704721B1828942F00202828104E0828918
:101C10004FF6FD731A4082817047028A4FF6DF73D8
:101C20001A400282028A0A430282704721B1028A64
:101C300042F48042028204E0028A4BF6FF731A40AB
:101C400002827047C1F3080282807047014688888B
:101C5000C0F308007047818941F00101818170471C
:101C6000028BD2B20283028B42EA012202837047C6
:101C7000028B02F47F420283028B0A430283704785
:101C800021B1828A42F02002828204E0828A4FF6E9
:101C9000DF731A408282704721B1828A42F01002BB
:101CA000828204E0828A4FF6EF731A408282704784
:101CB00021B1828A42F00802828204E0828A4FF6D1
:101CC000F7731A408282704721B1828942F4004240
:101CD000828103E08289C2F30E028281704721B1C2
:101CE000828A42F40062828204E0828A4FF2FF73A9
:101CF0001A4082827047828A4FF6FB731A408282B2
:101D0000828A0A438282704721B1828A42F00202AB
:101D1000828204E0828A4FF6FD731A408282704705
:101D200002460020B1F5007F00D100BF13880B40B0
:101D30000BB1012000E00020704701F40072B2F501
:101D4000007F00D100BFCA430280704770B50246D1
:101D5000002400230025002040F66A16B14200D17D
:101D600000BFC1F3421501F01F03012606FA03F379
:101D7000012D02D19689334006E0022D02D1168A48
:101D8000334001E0968A33400C12012606FA04F42F
:101D90001688344013B10CB1012000E0002070BD62
:101DA00010B50022002340F66A14A14200D100BF02
:101DB0000A1201249440A3B2DC43048010BD000049
:101DC000003801400044004000480040004C004002
:101DD0000050004001684FF6FE7211400160002182
:101DE000016041608160C1608D49884208D18C49A1
:101DF0000839496841F00F01894A083A51608AE080
:101E000087491431884208D185490839496841F029
:101E1000F001834A083A51607DE0814928318842C7
:101E200008D17F490839496841F470617C4A083A11
:101E3000516070E07A493C31884208D178490839CC
:101E4000496841F47041764A083A516063E0744948
:101E50005031884208D172490839496841F47021EB
:101E60006F4A083A516056E06D496431884208D1A2
:101E70006B490839496841F47001694A083A516070
:101E800049E067497831884208D16549083949688D
:101E900041F07061624A083A51603CE06149884211
:101EA00006D1011F096841F00F01021F116032E0E5
:101EB0005C491431884208D15A49091F096841F028
:101EC000F001584A121F116025E056492831884216
:101ED00008D15449091F096841F47061514A121F21
:101EE000116018E04F493C31884208D14D49091F23
:101EF000096841F470414B4A121F11600BE04949D7
:101F00005031884207D14749091F096841F47021BF
:101F1000444A121F1160704710B50022026847F64C
:101F2000F0739A430C6A8B6823430C6923434C6912
:101F300023438C692343CC6923434C6A23438C6A33
:101F400023431A430260CB6843600B6883604B688D
:101F5000C36010BD0021016041608160C16001610A
:101F600041618161C161016241628162704721B159
:101F7000026842F00102026004E002684FF6FE735C
:101F80001A40026070471AB103680B43036002E015
:101F900003688B430360704741607047014648689F
:101FA00080B2704701460020002201F080531BB12F
:101FB0001C4B083B1A6802E0194B083B1A6802EAFE
:101FC00001030BB1012000E00020704700F08051B8
:101FD00019B11449091F086002E011490839486025
:101FE000704701460020002201F080531BB10D4BC9
:101FF000083B1A6802E00A4B083B1A6802EA010330
:102000000BB1012000E00020704700F0805119B1B1
:102010000449091F086002E0014908394860704717
:102020000800024008040240704700000FB41CB5CD
:10203000074B06AA7B4469460090059800F007F913
:102040000020694600F016F91CBC5DF814FB000086
:102050003D0200002DE9F0410E46044600202062BA
:102060002046E168884730B3252805D0D4E901210E
:102070009047206A401CF2E7E16820460027884725
:10208000050018D0A5F14100192802D820354FF4D9
:1020900000673246294620462760FEF761F840B1C6
:1020A000012804D0F61D26F007060836D8E7361DAD
:1020B000D6E72846DAE7206ABDE8F0812DE9F0414D
:1020C0000646002410687529314616A510D0AFF3D6
:1020D0000080002802DA404213A507E031688A0731
:1020E00001D512A502E0490704D511A5012401E09C
:1020F000AFF3008000210A2206F1240709E0B0FBBB
:10210000F2FCB0FBF2F302FB1C00303078541846AE
:10211000491C0028F3D123462A463046BDE8F04149
:1021200000F036B8000000002D0000002B00000079
:102130002000000002F0FF0343EA032242EA0242C9
:1021400000F002B84FF000020429C0F0128010F035
:10215000030C00F09680CCF1040CBCF1020F18BF08
:1021600000F8012BA8BF20F8022BA1EB0C0100F016
:1021700088B85FEAC17C24BF00F8012B00F8012B6E
:1021800048BF00F8012B7047704770477047704791
:102190002DE9F0470D4699469246044600F1240881
:1021A0000168880604D5E06921F01001216000E093
:1021B0000120A84201DD471B00E00027A1697A1930
:1021C00002EB0900081AA0612078C00602D420465C
:1021D000AFF30080002608E0D4E901211AF80600D8
:1021E0009047206A401C761C20624E45F4DB207824
:1021F000C0060AD52046AFF3008006E0D4E90121ED
:1022000030209047206A401C2062381EA7F1010749
:10221000F4DC07E0D4E9012118F805009047206AB2
:10222000401C2062281EA5F10105F3DC2046AFF317
:1022300000802078000602D50220BDE8F08701204A
:10224000FBE7000001694A1C02610878704700B58D
:102250008FB0CDE901310021059105497944CDE9DF
:10226000031011466846FFF7F5FE0FB000BD0000F1
:10227000E5FFFFFF0A6802F8010B0A6070474FF0A4
:10228000000200B5134694469646203922BFA0E8C6
:102290000C50A0E80C50B1F12001BFF4F7AF0907D2
:1022A00028BFA0E80C5048BF0CC05DF804EB8900C3
:1022B00028BF40F8042B08BF704748BF20F8022B06
:1022C00011F0804F18BF00F8012B7047754600F0E1
:1022D00029F8AE4605006946534620F007008546BA
:1022E00018B020B5FEF774FFBDE820404FF000069F
:1022F0004FF000074FF000084FF0000B21F00701EE
:10230000AC46ACE8C009ACE8C009ACE8C009ACE830
:10231000C0098D4670470446AFF300802046FDF7A4
:1023200031FF0000004870472C0200200000000030
:1023300000000000002F000000000700070000144C
:102340007F147F1400242A7F2A120062640813235A
:1023500000364955225000000503000000001C22F1
:102360004100000041221C000014083E081400082F
:10237000083E0808000000A06000000808080808DF
:10238000000060600000002010080402003E514977
:10239000453E0000427F4000004261514946002115
:1023A00041454B31001814127F100027454545392F
:1023B000003C4A494930000171090503003649498A
:1023C000493600064949291E000036360000000043
:1023D000563600000008142241000014141414148E
:1023E0000000412214080002015109060032495937
:1023F000513E007C1211127C007F49494936003E53
:1024000041414122007F4141221C007F494949410D
:10241000007F09090901003E4149497A007F080807
:10242000087F0000417F4100002040413F01007FC4
:1024300008142241007F40404040007F020C027F90
:10244000007F0408107F003E4141413E007F0909A2
:102450000906003E4151215E007F091929460046C8
:10246000494949310001017F0101003F4040403F9F
:10247000001F2040201F003F4038403F00631408E9
:1024800014630007087008070061514945430000C4
:102490007F41410000552A552A55000041417F00E7
:1024A00000040201020400404040404000000102DC
:1024B0000400002054545478007F484444380038C5
:1024C0004444442000384444487F0038545454184D
:1024D00000087E0901020018A4A4A47C007F08045F
:1024E00004780000447D4000004080847D00007F2F
:1024F000102844000000417F4000007C041804784C
:10250000007C0804047800384444443800FC242447
:1025100024180018242418FC007C0804040800482F
:102520005454542000043F444020003C4040207C50
:10253000001C2040201C003C4030403C004428103F
:102540002844001CA0A0A07C004464544C441414F3
:1025500014141414BBB6D3ADCAB9D3C3CAD7B4CEFE
:10256000C9E8D6C3C3DCC2EBC7EBCAE4C8EBCEBB39
:10257000CDEAB3C9CAC7B7F1D6B8CEC6C9D4BAF383
:102580000004244484649C40300FC80808281800C4
:102590000010080601824C20180601061820408011
:1025A00000404042CC0000FC040200FC0404FC009B
:1025B000000040201F20404F4442407F424443409F
:1025C000008060F80704E4242424FF242424E40485
:1025D000000000FF0080814529112F414181818049
:1025E000000000FE22222222FE22222222FE0000E1
:1025F0000080601F020202027F020242827F00000E
:10260000000404E42526342C2424242625E4040490
:10261000000000FF494949494949494949FF00002B
:102620000000020C80608040300FC80808281800A5
:102630000002027E0180402018060106182040801A
:1026400000404042CC0040A09E8282829EA020207A
:10265000000000003F908840432C102846418080B5
:1026600000001715D55557557D555755D5151700E9
:10267000004040407F555555555555557F40404089
:1026800000108C4404E40495A64424148444940C5F
:102690000002027A414143427E42424243F8000036
:1026A000000484E45C44C40002F2828282FE8080E2
:1026B0000002017F10103F00080808084888403FCA
:1026C000004042CC0000445454547F54545444407D
:1026D0000000007F201000FF15151555957F0000A4
:1026E0000088681FC80810C85452D1129408D0102E
:1026F00000091909FF0500FF1292FF005F807F00AB
:1027000000000000000001E21CE0000000000000EA
:1027100000804020100C03000000030C304080803B
:1027200000008060F80710901011161010D01000F3
:1027300000010000FF4040415E4040704E4140407B
:1027400000100C0424242425262424242404140CFE
:102750000000818141310F0101017F818181F10000
:10276000000000F8888888880808FF08090AC80857
:102770000080601F0010201F80402116182641F89D
:10278000000000007F494949494949497F0000004C
:10279000008141211D214181FF89898989898181A8
:1027A0000000028282422212FA0622224242820063
:1027B00000010100FC44444445444444FC00000141
:1027C00000101010FF1090003F48484444444270ED
:1027D000000444827F010000FF4949494949FF0044
:1027E000002030AC63100808F8090E08F80808004B
:1027F0000022672212928040211608162140808014
:10280000002424A4FE232200E22C203F2028E600FE
:1028100000080601FF010600FF09090949897F0038
:1028200000000000FC242424242222222322202031
:10283000004020180700FE424242424242FE000091
:102840000000000000000000000000000000000088
:1028500000000000F800000000000000333000001D
:102860000000100C06100C06000000000000000024
:102870000040C07840C0784000043F04043F040496
:1028800000007088FC08300000001820FF211E00A6
:1028900000F008F000E018000000211C031E211EBB
:1028A0000000F00888700000001E21232419272151
:1028B0001010160E000000000000000000000000D4
:1028C00000000000E018040200000000071820408B
:1028D0000000020418E0000000004020180700007B
:1028E00000404080F0804040000202010F010202DF
:1028F00000000000F0000000000101011F010101C3
:1029000000000000000000000080B0700000000027
:1029100000000000000000000000010101010101B1
:102920000100000000000000000030300000000046
:10293000000000000080601804006018060100001C
:102940000000E010080810E000000F102020100F19
:1029500000001010F8000000000020203F202000A0
:1029600000007008080888700000302824222130F8
:102970000000300888884830000018202020110E00
:10298000000000C02010F8000000070424243F24A9
:102990000000F80888880808000019212020110E7E
:1029A0000000E0108888180000000F112020110E90
:1029B0000000380808C83808000000003F00000088
:1029C000000070880808887000001C222121221C49
:1029D0000000E010080810E0000000312222110F72
:1029E00000000000C0C00000000000003030000007
:1029F0000000000080000000000000806000000077
:102A0000000000804020100800000102040810208F
:102A100000404040404040400004040404040404DA
:102A2000000008102040800000002010080402016F
:102A300000007048080808F000000000303601006F
:102A400000C030C828E810E0000718272423140B22
:102A5000000000C038E0000000203C2302022738BC
:102A60002008F8888888700000203F202020110E60
:102A700000C0300808080838000718202020100877
:102A80000008F808080810E000203F202020100F60
:102A90000008F88888E8081000203F20202320182C
:102AA0000008F88888E8081000203F200003000094
:102AB00000C03008080838000007182020221E0235
:102AC0000008F808000008F808203F210101213F14
:102AD00020000808F8080800000020203F202000FF
:102AE0000000000808F8080800C08080807F00000F
:102AF0000008F888C028180800203F200126382048
:102B00000008F8080000000000203F2020202030AE
:102B10000008F8F800F8F80800203F003F003F20C8
:102B20000008F830C00008F808203F200007183FD0
:102B300000E01008080810E0000F10202020100FFF
:102B40000008F808080808F000203F2101010100F2
:102B500000E01008080810E0000F18242438504F37
:102B60000008F8888888887000203F2000030C3017
:102B70002000708808080838000038202121221C15
:102B800000180808F8080818000000203F2000007E
:102B90000008F808000008F808001F202020201F67
:102BA000000878880000C83808000007380E0100C7
:102BB00000F80800F80008F800033C0700073C0391
:102BC00000081868808068180820302C03032C3017
:102BD000200838C800C83808000000203F20000046
:102BE0000010080808C838080020382621202018BE
:102BF00000000000FE020202000000007F40404092
:102C000000000C30C000000000000000010638C0C9
:102C10000000020202FE000000004040407F000071
:102C20000000000402020204000000000000000096
:102C30000000000000000000008080808080808014
:102C400080000202040000000000000000000000FC
:102C50000000008080808000000019242222223F92
:102C60002008F8008080000000003F112020110E95
:102C7000000000008080800000000E112020201144
:102C800000000000808088F800000E112020103F16
:102C9000200000808080800000001F22222222135A
:102CA00000008080F0888888180020203F202000C5
:102CB000000000808080808000006B94949493607A
:102CC0000008F8008080800000203F210000203FA5
:102CD0002000809898000000000020203F20200065
:102CE00000000000809898000000C08080807F0075
:102CF0000008F8000080808000203F24022D302052
:102D000000000808F8000000000020203F202000FC
:102D1000008080808080808000203F20003F200055
:102D20003F8080008080800000203F210000203F05
:102D3000200000808080800000001F202020201FB5
:102D400000808000808000000080FFA12020110E04
:102D5000000000008080808000000E112020A0FF75
:102D600080808080008080800020203F2120000122
:102D700000000080808080800000332424242419F7
:102D800000008080E0808000000000001F20200004
:102D9000008080000000808000001F202020103F65
:102DA00020808080000080808000010E30080601B5
:102DB0000080800080008080800F300C030C300F7A
:102DC0000000808000808080000020312E0E3120A5
:102DD00000808080000080808080818E70180601D5
:102DE0000000808080808080000021302C222130F3
:102DF0000000000000807C020200000000003F4054
:102E00004000000000FF00000000000000FF000084
:102E1000000002027C800000000040403F000000F3
:102E2000000006010102020404000000000000008E
:102E300000000080C0E0F0F8FCF8F0E0C080000086
:102E4000000000000103070F1F0F0703010000002F
:102E500000000000742E0008000000203800000070
:102E600028010008AC2E000838000020580400009B
:102E70004401000800A24A04000000000000000015
:102E8000010203040607080900000000000000001A
:102E90000000000000000000000000010203040127
:0C2EA000020304060708090204060800EB
:04000005080000ED02
:00000001FF
