:020000040800F2
:100000009804002059170008D9040008DB040008F0
:10001000DF040008E3040008E70400080000000013
:10002000000000000000000000000000EB040008D9
:10003000ED04000800000000EF040008F1040008CF
:100040007317000873170008731700087317000868
:100050007317000873170008731700087317000858
:100060007317000873170008731700087317000848
:100070007317000873170008731700087317000838
:100080007317000873170008731700087317000828
:100090007317000873170008731700087317000818
:1000A0007317000873170008731700087317000808
:1000B000731700087317000800000000731700088A
:1000C000731700080000000000000000731700080C
:1000D000000000009B1400088716000800000000C4
:1000E00073170008731700087317000800F002F870
:1000F00000F04AF80AA090E8000C82448344AAF178
:100100000107DA4501D100F03FF8AFF2090EBAE875
:100110000F0013F0010F18BFFB1A43F0010318473B
:100120003858000058580000103A24BF78C878C1E9
:10013000FAD8520724BF30C830C144BF04680C60ED
:10014000704700000023002400250026103A28BF35
:1001500078C1FBD8520728BF30C148BF0B60704739
:10016000662904F02386642902F07C86002070470B
:100170001FB503F059FA04000020002103F096FF98
:10018000E0601FBD10B510BD03F04EFB1146FFF738
:10019000EFFF00F07DF803F06CFB03B4FFF7F2FF14
:1001A00003BC01F0DFF8000008B50121082001F0D0
:1001B0007BFE0320ADF8000048208DF8030069465F
:1001C000AD4801F0B5FB08BD10B5AC4802F022FF08
:1001D00084B22146A94801F0A7F910BD10B5A8487E
:1001E00002F018FF84B22146A54801F09DF910BD28
:1001F0002DE9F04F91B0402101A802F054FF0024F6
:10020000DFF8809200BF1EE0002001F00FF80090A0
:1002100004F008FD83464FF08B4104F041FC824618
:1002200004F006FC07464FF06632974B04F0E2F903
:10023000054603F051FF01A941F824000A2001F00E
:1002400064F8601CC4B2102CDEDB00240EE001A8B0
:1002500050F82410484604F078FD03D201A850F865
:10026000240000E048468146601CC4B2102CEEDB3E
:10027000484604F0DDFB0746844A854B04F0BAF992
:10028000054603F029FF8349086011B0BDE8F08FEF
:100290008AB04FF0000A00BF002009900890049037
:1002A00005900690079000F0F3FF4FF4A06001F076
:1002B00071FA00F020FF00F0AFFA00F075FF4FF484
:1002C000E13001F085F84FF4E13001F077F900F00A
:1002D00001FAFFF78DFFFFF767FFCAE008A909A839
:1002E00000F0DCFA00200490059006900790099831
:1002F00004F09EFB044622460B4667A104A802F0C8
:100300009DFD0120022304AA00210090084600F070
:1003100082FE00200490059006900790089804F053
:1003200087FB044622460B465FA104A802F086FD27
:100330000120022304AA10210090002000F06BFE8F
:100340002022102104A802F084FE5248006804F024
:100350006FFB04460D46002000F068FF029004F099
:1003600061FC4FF08B41039004F09AFB834604F04C
:100370005FFB80464FF06632434B04F03BF9064684
:1003800022462B4604F034FA0AD2002000F04EFF39
:10039000C0F58054224648A104A802F04FFD09E0B0
:1003A000002000F043FFC0F58054224642A104A87B
:1003B00002F044FD00208DF81F000120022304AA52
:1003C00020210090002000F026FE2022102104A809
:1003D00002F03FFE012000F029FF0446224639A129
:1003E00004A802F02BFD00208DF81E0004A802F0E6
:1003F00011FE04A920220A540120022304AA30215C
:100400000090002000F007FEAFF2432001F074F8E6
:100410002E48006818B92D48001D006818B9002042
:100420002B49086002E00120294908600AF1010017
:1004300080B282460A281CD14FF0000A002000F04A
:10044000F5FEC0F58058012000F0F0FE81460998C5
:1004500004F0EEFA04460D46089804F0E9FA064660
:1004600032460B461B488DE83002CDF80C8002F076
:10047000D9FC33E770470000000C01404000002029
:100480006C0100203333534066660A409A9999996B
:100490009999E93F00000020CAAAB6C83A25302E33
:1004A0003266252500000000CEC2B6C83A25302E9F
:1004B0003266A1E343000000BBF0D1E63A25642098
:1004C00000000000D1CCCEED3A256400008121422D
:1004D000B401224214590008704700BFFEE700BF74
:1004E000FEE700BFFEE700BFFEE7704770477047BA
:1004F000704700000CB50020019000906C48006827
:1005000040F480306A49086000BF6948006800F420
:10051000003000900198401C0190009818B9019893
:10052000B0F5A06FF1D16248006800F4003010B15E
:100530000120009001E0002000900098012843D1A4
:100540005C48006840F010005A490860084600689E
:1005500020F0030008600846006840F002000860D0
:100560005348406852494860084640684860084619
:10057000406840F4806048600846406820F47C1081
:1005800048600846406840F4E81048600846006843
:1005900040F08070086000BF4548006800F00070BF
:1005A0000028F9D04248406820F0030040494860E4
:1005B0000846406840F00200486000BF3C48406880
:1005C00000F00C000828F9D10CBD10B5FFF792FF20
:1005D00010BD10B53648006840F00100344908608D
:1005E0000846406834490840314948600846006878
:1005F000324908402E4908600846006820F48020EF
:1006000008600846406820F4FE0048604FF41F0070
:100610008860FFF7DAFF4FF000602949086010BDDD
:1006200010B5002100200022214B5B6803F00C0173
:1006300021B1042906D0082928D107E0214B224CFA
:10064000236027E01F4B204C236023E0184B5B689E
:1006500003F47010164B5B6803F48032022303EB43
:10066000904022B9194B4343174C23600DE0104BC7
:100670005B6803F4003323B1144B4343124C2360F3
:1006800003E0104B4343104C236003E00D4B0E4C32
:10069000236000BF00BF064B5B68C3F303130C4C21
:1006A000E15C094B1B68CB40074C236010BD000088
:1006B00000100240002002400000FFF8FFFFF6FE9D
:1006C00008ED00E000127A000800002000093D005B
:1006D0000C00002008B50121102001F0E5FB4FF4CB
:1006E0000050ADF8000010208DF8030003208DF8B5
:1006F00002006946044801F01BF94FF4005102481A
:1007000001F0C3F908BD00000010014010B500BFA2
:100710004FF40031B34802F03FFB0028F8D101212B
:10072000B04802F036FA00BFAF49AE4802F012FB03
:100730000028F9D010BD10B50121AA4802F035FA01
:1007400010BD70B504460E461546FFF7DFFF0022C8
:100750007021A44802F073FA00BFA449A14802F036
:10076000F9FA0028F9D021469E4802F062FA00BF4B
:100770009E49891C9B4802F0EDFA0028F8D03146CA
:10078000984802F056FA00BF9849891C954802F033
:10079000E1FA0028F8D02946924802F04AFA00BF50
:1007A0009249891C8F4802F0D5FA0028F8D001211F
:1007B0008C4802F0FAF970BD10B500BF8A493F318C
:1007C000884802F0C7FA0028F8D0864802F033FAC9
:1007D00010BD10B5FFF79AFF00227021814802F08A
:1007E0002EFA00BF81497F4802F0B4FA0028F9D000
:1007F000BA217C4802F01DFA00BF7C49891C794867
:1008000002F0A8FA0028F8D00121764802F0CDF9CC
:10081000142000F07AFD10BD00B585B00121480517
:1008200001F04FFB0121082001F03EFBC020ADF894
:10083000100003208DF812001C208DF8130004A96D
:100840006B4801F075F8674802F0E8F80020ADF851
:1008500004004BF6FF70ADF806008820ADF80800E4
:100860004FF48060ADF80A000001ADF80C0061485B
:10087000009069465B4802F0EAF80121594802F00D
:1008800064F9142000F041FD00220821E120FFF767
:1008900058FF142000F039FD05B000BD2DE9F04FE0
:1008A00089B081468A4600223321AC20FFF749FFF8
:1008B000462000F02AFDFFF729FF01227021494858
:1008C00002F0BDF900BF4849491C464802F042FA0F
:1008D0000028F8D0002411E0052C03D10021414864
:1008E00002F06FF9FFF768FF07A90855052C03D13F
:1008F00001213C4802F059F9601CC4B2062CEBDB24
:100900000121384802F05DF99DF81C0000F0080054
:1009100058B900220821E120FFF713FF142000F04E
:10092000F4FC002009B0BDE8F08F9DF81C0000F039
:10093000800000284ED19DF81D0000039DF81E1078
:1009400040EA01109DF81F1040EA211B9DF81F008E
:100950000007000B9DF8201040EA01200843069094
:10096000584603F0F7FD0022234BCDE9020103F0C6
:1009700041FE07460022214B03F094FC054600226D
:100980001E4B03F08FFCCDE9040103F0A5FBC9F871
:100990000000069803F0DEFD07460022184B03F026
:1009A00029FE0022154BCDE9000103F07BFC054632
:1009B0000022124B03F076FC0022124BCDE902011B
:1009C00003F04CFFCDE9040103F086FBCAF80000F8
:1009D0000120A7E700BF0121024802F0E6F800204D
:1009E000A0E700000054004001000300820007005F
:1009F000000C0140801A06000000594000009040A1
:100A0000000069400000494000B585B0012148055B
:100A100001F057FA0121082001F046FAC020ADF894
:100A2000100003208DF812001C208DF8130004A97B
:100A3000FA4800F07DFFFA4801F0F0FF0020ADF821
:100A400004004BF6FF70ADF806008820ADF80800F2
:100A50004FF48060ADF80A000001ADF80C00F148D9
:100A600000906946EE4801F0F2FF0121EC4802F0E7
:100A70006CF805B000BD70B504460D4600BF4FF4DC
:100A80000031E74802F088F90028F8D10121E44854
:100A900002F07FF800BFE449E14802F05BF900286A
:100AA000F9D000227821DE4802F0C9F800BFDF4902
:100AB000DB4802F04FF90028F9D02146D84802F06F
:100AC000B8F800BFD949891CD54802F043F900287D
:100AD000F8D02946D24802F0ACF800BFD349891CAF
:100AE000CF4802F037F90028F8D00121CC4802F0B5
:100AF0005CF870BD10B5044621460020FFF7BBFF2F
:100B000010BD10B5044621464020FFF7B4FF10BDCC
:100B100070B504460D46B02101EBE501C8B2FFF700
:100B2000E9FF102141EA1410FFF7E4FF04F00F0180
:100B300041F00100FFF7DEFF70BD70B506460024EE
:100B400015E004F1B001C8B2FFF7D4FF0120FFF7B0
:100B5000D1FF1020FFF7CEFF002504E03046FFF75D
:100B6000D0FF681CC5B2802DF8DB601CC4B2082C15
:100B7000E7DB70BD70B5002415E004F1B001C8B228
:100B8000FFF7B8FF0120FFF7B5FF1020FFF7B2FF16
:100B9000002504E00020FFF7B4FF681CC5B2802DDB
:100BA000F8DB601CC4B2082CE7DB70BD70B50446EE
:100BB000B02101EBE401C8B2FFF79CFF0120FFF771
:100BC00099FF1020FFF796FF002504E00020FFF7B3
:100BD00098FF681CC5B2802DF8DB70BD2DE9F0418F
:100BE00004460D461646B02101EBE501C8B2FFF7F9
:100BF00081FF0120FFF77EFF1020FFF77BFF2746D4
:100C000004E00020FFF77DFF781CC7B2B742F8DB95
:100C1000BDE8F08109E040F2375100BF0A00A1F1C0
:100C2000010399B2FAD1421E90B20028F3D1704765
:100C300070B505460C462046E11704EB5171C9100A
:100C4000A4EBC10201219140CEB2B02101EBE4013D
:100C5000C8B2FFF74FFF102141EA1510FFF74AFF16
:100C600005F00F00FFF746FF3046FFF74AFF70BD63
:100C700070B504460D461646B02101EBE501C8B239
:100C8000FFF738FF102141EA1410FFF733FF04F09B
:100C90000F00FFF72FFF3046FFF733FF70BD2DE940
:100CA000F04707460C4690461D46DDF820A0E110AF
:100CB0003846FFF72DFF3E4613E0A146E11704EB4F
:100CC0005171C910A4EBC10201219140C8B2FFF7D4
:100CD00018FFBAF1010F02D13220FFF79BFF701C01
:100CE000C6B24645E9DDE9103846FFF711FF3E463A
:100CF00013E0A946E91705EB5171C910A5EBC10234
:100D000001219140C8B2FFF7FCFEBAF1010F02D1F8
:100D10000520FFF77FFF701CC6B24645E9DDBDE840
:100D2000F0872DE9F04704468846154699464FF06E
:100D3000000A002600271FE0E85D203800F0FF0AC7
:100D40007E2C04DD002408F1010000F0FF0841467C
:100D50002046FFF7DDFE002608E00AEB4A0109EB1A
:100D60004101885DFFF7CDFE701CC6B2062EF4DB94
:100D7000A01DC4B2781CC7B2E85D0028DCD1BDE874
:100D8000F0872DE9F04706460F4690469946002524
:100D90000024A24630E018F80A002038C5B2782EA8
:100DA00002DD0026781CC7B239463046FFF7B0FE98
:100DB000002406E009EB0511085DFFF7A2FE601CA8
:100DC000C4B2082CF6DB07F10800C1B23046FFF7C9
:100DD0009FFE002407E009EB05112144087AFFF784
:100DE00090FE601CC4B2082CF5DB06F10800C6B208
:100DF0000AF1010000F0FF0A18F80A000028CAD121
:100E0000BDE8F0872DE9F05F82460F46904699468F
:100E1000DDF828B000240026012577E0000C014011
:100E200000540040801A0600010003008200070001
:100E30000024012513E019F8040018F80610884270
:100E40000BD109EB04004178701C18F800008142B6
:100E500003D1C4EBC400450005E0A01CC4B219F8DE
:100E600004007F28E7DC00BFBAF1760F03DD4FF006
:100E7000000A781CC7B239465046FFF749FE012DDB
:100E800021D039465046FFF743FE002407E01BF807
:100E90000500FFF736FE681C85B2601CC4B20E2C3C
:100EA000F5DB781CC1B25046FFF732FE002407E0A4
:100EB0001BF80500FFF725FE681C85B2601CC4B254
:100EC0000E2CF5DB1CE0701CC6B239465046FFF70D
:100ED0001FFE002404E00020FFF713FE601CC4B2D4
:100EE000102CF8DB781CC1B25046FFF711FE00242D
:100EF00004E00020FFF705FE601CC4B2102CF8DBF4
:100F00000AF10E0000F0FF0AB01CC6B218F8060085
:100F100000288DD1BDE8F09F2DE9F05F82460F4695
:100F200090469946DDF828B00024002501266CE0A3
:100F30000024012611E019F8040018F80510884271
:100F400009D109EB0400407808EB05014978884293
:100F500001D1260105E0A01CC4B219F804007F28C5
:100F6000E9DC00BFBAF1760F03DD4FF0000A781C10
:100F7000C7B239465046FFF7CBFD012E22D0394685
:100F80005046FFF7C5FD002407E01BF80600FFF7F9
:100F9000B8FD701C86B2601CC4B2102CF5DB07F1E2
:100FA0000800C1B25046FFF7B3FD002407E01BF86C
:100FB0000600FFF7A6FD701C86B2601CC4B2102CA0
:100FC000F5DB1CE0681CC5B239465046FFF7A0FDB2
:100FD000002404E00020FFF794FD601CC4B2102C34
:100FE000F8DB781CC1B25046FFF792FD002404E004
:100FF0000020FFF786FD601CC4B2102CF8DB0AF15C
:10100000100000F0FF0AA81CC5B218F8050000285F
:101010008ED1BDE8F09F2DE9FC470646884615466F
:1010200099460A9F002438E0285D7F2817DD285D57
:101030008DF80400281940788DF8050000208DF8FF
:1010400006005548554B01AA414600903046FFF72F
:1010500063FF06F11000C6B2A01CC4B21DE0285DFB
:101060008DF8040000208DF80500012F09D14C4BAC
:1010700001AA41463046FFF784FE06F10800C6B2D9
:1010800009E0032F07D1474B01AA41463046FFF73D
:1010900048FEB01DC6B2601CC4B2285D0028C3D192
:1010A000BDE8FC872DE9F04180460F461646002436
:1010B000002539464046FFF72BFD00BF06E0705D76
:1010C000FFF71FFD681CC5B2601CC4B2102CF6DB14
:1010D00007F10800C1B24046FFF71AFD002406E000
:1010E000705DFFF70EFD681CC5B2601CC4B2102C09
:1010F000F6DBBDE8F08110B5FFF786FCAE20FFF708
:10110000F9FCD520FFF7F6FC8020FFF7F3FCA820C0
:10111000FFF7F0FC3F20FFF7EDFCD320FFF7EAFCE0
:101120000020FFF7E7FC4020FFF7E4FCA120FFF7D9
:10113000E1FCC820FFF7DEFCDA20FFF7DBFC122021
:10114000FFF7D8FC8120FFF7D5FCCF20FFF7D2FCBA
:10115000D920FFF7CFFCF120FFF7CCFCDB20FFF715
:10116000C9FC3020FFF7C6FCA420FFF7C3FCA62073
:10117000FFF7C0FC8D20FFF7BDFC1420FFF7BAFC81
:10118000AF20FFF7B7FC0020FFF7D7FC002108468F
:10119000FFF7BEFC10BD0000FF4F0008D84F00084D
:1011A0005F520008B04D000800B587B001214FF430
:1011B000017000F079FE4FF4004000F0D9FD0320EB
:1011C000ADF8040000208DF8070001A92E4800F0BA
:1011D000AFFB2E4801F0FAF9002002908DF80C00C8
:1011E0008DF80D004FF46020049000200590012040
:1011F0008DF8180002A9254801F00FFA01212348B3
:1012000001F037FA214801F056FA00BF1F4801F0FB
:1012100057FA0028FAD11D4801F05CFA00BF1B48BC
:1012200001F05DFA0028FAD107B000BD10B5044600
:10123000072301222146154801F087FA01211348AE
:1012400001F057FA00BF0221104801F0C3FB00284B
:10125000F9D00E4801F0E0FA10BD2DE9F041074643
:101260000C460025002608E03846FFF7DFFF05445E
:10127000052000F04AF8701CC6B2A642F4DBB5FBAC
:10128000F4F080B2BDE8F081000801400024014084
:1012900010B56FF0040000F0CCFA2E4800682E491B
:1012A000B0FBF1F02D4908700846007800EB4001D2
:1012B000C1EBC0104FF6FF7101EAC0002849088059
:1012C00010BD0146254A12784A434FF0E0235A6187
:1012D00000229A611A46126942F001021A6100BFA7
:1012E0004FF0E022106900F001021AB100F48032E0
:1012F000002AF5D04FF0E022126922F001024FF0EF
:10130000E0231A6100229A6170470146144A12884C
:101310004A434FF0E0235A6100229A611A4612694B
:1013200042F001021A6100BF4FF0E022106900F0A4
:1013300001021AB100F48032002AF5D04FF0E02209
:10134000126922F001024FF0E0231A6100229A6133
:10135000704700000800002000127A001C000020E6
:101360001E00002000BF704700BF7A4A128802F0BA
:101370004002002AF9D0C2B2764B1B1D1A8070477A
:10138000F0B58BB007460C4615461E4601210846AF
:1013900000F07DFD384600F0EFFF0094019500203D
:1013A00002900396049080200590002006900790FC
:1013B00008904FF44050099000200A906946384642
:1013C00001F07CF80121384601F0A3F80BB0F0BD24
:1013D00010B586B00446012144F2040000F064FD1B
:1013E0004FF40070ADF8140003208DF8160018209B
:1013F0008DF8170005A9584800F09AFA4FF480605C
:10140000ADF8140004208DF8170005A9524800F02B
:101410008FFA25208DF8000003208DF801008DF84B
:10142000020001208DF80300684600F0B8F901942D
:101430000020ADF80800ADF80A00ADF80C00ADF8DA
:1014400010000C20ADF80E0001A9424800F0D3FDB9
:10145000002240F226613F4800F065FE002240F283
:1014600025513C4800F05FFE012240F224413948FA
:1014700000F059FE01224021364800F079FE01219A
:10148000344800F044FE4FF49673344A3149091D44
:101490003348FFF775FF06B010BD10B5002440F2C9
:1014A00025512C4800F024FF60B12A4800F0A0FE2E
:1014B000C1B22C4802880088401C2A4B188027485B
:1014C000815418E040F22441224800F011FF90B10D
:1014D000204800881F48001D00880021204801F096
:1014E00018F80120204908701D4801F029F8C0F5BE
:1014F00096701C49088010BD10B504461A48007843
:1015000088B1A0470020184908704FF4967113481D
:1015100001F0A7FD4FF49671114801F00FF8012179
:101520000F4800F0F6FF10BD10B50246002000BFC6
:101530000CE000BF074B1B8803F04003002BF9D0E1
:10154000135C044C241D2380431C98B28842F0DBBA
:1015500010BD00000038014000080140400000209C
:10156000580002402400002026000020F0B58BB077
:1015700007460C4615461E460121084600F087FC2A
:10158000384600F0F9FE0094019500200290039681
:1015900004908020059000200690079008904FF45A
:1015A0004050099000200A906946384600F086FFB6
:1015B0000121384600F0ADFF0BB0F0BD10B586B08C
:1015C00004460121042000F06FFC0121480400F0D2
:1015D00078FC0420ADF8140003208DF816001820C4
:1015E0008DF8170005A9564800F0A2F90820ADF8BB
:1015F000140004208DF8170005A9514800F098F94F
:1016000026208DF8000002208DF801008DF80200E0
:1016100001208DF80300684600F0C1F80194002015
:10162000ADF80800ADF80A00ADF80C00ADF81000F8
:101630000C20ADF80E0001A9424800F0DCFC0022AD
:1016400040F226613F4800F06EFD002240F2255135
:101650003C4800F068FD012240F22441394800F086
:1016600062FD01224021374800F082FD012135480A
:1016700000F04DFDC823344A3249091D3348FFF7B5
:1016800075FF06B010BD10B5002440F225512D485D
:1016900000F02EFE60B12B4800F0AAFDC1B22C482C
:1016A00002880088401C2A4B1880274881541BE080
:1016B00040F22441234800F01BFEA8B121480088D5
:1016C0002048001D008801202249087000211F4881
:1016D00000F01FFF01201F4908701C4800F030FF78
:1016E000C0F1C8001A49088010BD10B50446194859
:1016F000007878B1A047002016490870C821124828
:1017000001F0AFFCC821114800F018FF01210F487B
:1017100000F0FFFE10BD10B50246002000BF0CE037
:1017200000BF084B1B8803F04003002BF9D0135C6B
:10173000044C241D2380431C98B28842F0DB10BD6A
:1017400000080140004400406C0100206C00024091
:10175000280000202A000020094880470948004747
:10176000FEE7FEE7FEE7FEE7FEE7FEE7FEE7FEE751
:10177000FEE7FEE704480549034A054B70470000B1
:10178000D3050008ED00000898020020980400200E
:101790009802002031490143314A1160704770B509
:1017A000002100230F22C47804B32D4C246804F4D4
:1017B000E064C4F5E064210AC1F10403CA4044783E
:1017C00004FA03F18478144021430901254C06787A
:1017D000A155047804F01F050124AC4005786D1173
:1017E000AD0005F1E025C5F8004109E0047804F0FA
:1017F0001F050124AC401C4D0678761145F82640A3
:1018000070BD1A4A0A400243154B1B1F1A607047ED
:1018100039B1134A121D12680243114B1B1D1A6085
:1018200006E00F4A121D126882430D4B1B1D1A6001
:101830007047042808D14FF0E021096941F0040104
:101840004FF0E022116107E04FF0E021096921F03B
:1018500004014FF0E0221161704700000000FA051A
:101860000CED00E000E400E080E100E080FFFF1FFD
:1018700010B50446CC48844208D10121042000F070
:101880002DFB0021042000F029FB46E0C7488442DC
:1018900008D10121082000F021FB0021082000F0E0
:1018A0001DFB3AE0C248844208D10121102000F01B
:1018B00015FB0021102000F011FB2EE0BD488442F2
:1018C00008D10121202000F009FB0021202000F098
:1018D00005FB22E0B848844208D10121402000F0F5
:1018E000FDFA0021402000F0F9FA16E0B3488442E6
:1018F00008D10121802000F0F1FA0021802000F0C1
:10190000EDFA0AE0AE48844207D10121801500F0CB
:10191000E5FA0021A01500F0E1FA10BD10B5012193
:10192000084600F0DBFA0021012000F0D7FA10BDD4
:101930002DE9F04102460025002600200023002466
:10194000002791F803C00CF00F0591F803C00CF0CC
:10195000100CBCF1000F03D091F802C04CEA050551
:1019600091F800C0BCF1000F31D0146800202BE0CA
:101970004FF0010C0CFA00F3B1F800C00CEA0306BA
:101980009E4220D183004FF00F0C0CFA03F7BC43AA
:1019900005FA03FC4CEA040491F803C0BCF1280FDB
:1019A00006D14FF0010C0CFA00FCC2F814C00AE09A
:1019B00091F803C0BCF1480F05D14FF0010C0CFAAF
:1019C00000FCC2F810C0401C0828D1D31460B1F844
:1019D00000C0BCF1FF0F34DD546800202EE000F1A0
:1019E000080C4FF0010808FA0CF3B1F800C00CEA3B
:1019F00003069E4221D183004FF00F0C0CFA03F72F
:101A0000BC4305FA03FC4CEA040491F803C0BCF1A2
:101A1000280F05D100F1080C08FA0CF8C2F8148060
:101A200091F803C0BCF1480F07D100F1080C4FF04A
:101A3000010808FA0CF8C2F81080401C0828CED320
:101A40005460BDE8F0814FF6FF7101800221817082
:101A50000421C17070470246002093680B400BB10F
:101A6000012000E0002070470146886880B270477E
:101A700002460020D3680B400BB1012000E000209B
:101A800070470146C86880B2704701617047416184
:101A900070470AB1016100E041617047C160704761
:101AA0004FF480320A438261816182618269826976
:101AB000704702460020434B18684FF68073184069
:101AC00040EA021008433F4B186070473E49C86126
:101AD0007047F0B50A46002300240021002500F0DD
:101AE0000046B6F1004F02D1364EF16901E0354EA5
:101AF0007168C0F3034583B200F44016B6F5401F89
:101B000008D121F070612F4E766826F070662D4F57
:101B10007E6012E000F48016B6F5801F06D1032621
:101B200006FA05F4A14341F0706106E0460D360166
:101B300003FA06F6B14341F0706122B1460D360159
:101B400003FA06F6314300F00046B6F1004F02D129
:101B50001C4EF16101E01B4E7160F0BD30B50022FA
:101B60008B071C0F0F2303FA04F2164B08338C105B
:101B700053F824309343134C08348D1044F8253027
:101B800023468C1053F824308C07240F00FA04F4F9
:101B900023430C4C08348D1044F8253030BD0A49DD
:101BA000DC3108607047000000080140000C014073
:101BB000001001400014014000180140001C0140C9
:101BC000002001400000014000002042DF48006882
:101BD00040F00100DD49086008464068DC490840E3
:101BE000DA49486008460068DA490840D749086081
:101BF0000846006820F4802008600846406820F409
:101C0000FE0048604FF41F0088607047CF490968A4
:101C100021F48031CD4A11601146096821F48021F8
:101C20001160B0F5803F03D0B0F5802F0ED106E0F3
:101C3000C649096841F48031C44A116007E0C349CC
:101C4000096841F4A021C14A116000E000BF00BF53
:101C5000704710B501460022002300204A11012AD6
:101C600002D1BA4C236806E0022A02D1B74C236A9B
:101C700001E0B64C636A01F01F02012494401C404D
:101C80000CB1012000E0002010BD38B5002000900C
:101C90000024002500BF3120FFF7DBFF0546009838
:101CA000401C00900098B0F5A06F01D0002DF2D03C
:101CB0003120FFF7CEFF08B1012400E000242046C8
:101CC00038BD01460020A14A106820F0F80040EA23
:101CD000C10010607047A0490860704702460020AC
:101CE0009A4B586820F47C1042EA01031843974B42
:101CF0005860704798490866704701460020934A2B
:101D0000506820F003000843506070478F484068D7
:101D100000F00C007047014600208C4A506820F00B
:101D2000F00008435060704701460020874A506821
:101D300020F4E06008435060704701460020834A69
:101D4000506820F4605040EAC1005060704729B1EB
:101D50007E4A527A02437D4B5A7204E07B4A527AA1
:101D600082437A4B5A7270477B49D831086070477A
:101D700001460020754A506820F4404008435060F6
:101D800070470021714A20321170704A82F8201089
:101D9000012802D004280AD104E001216B4A203234
:101DA000117005E00521694A2032117000E000BF82
:101DB00000BF70476949086070476449096A014378
:101DC000624A11627047654944390860704730B50E
:101DD00000210022002400235C4D6D6805F00C01F9
:101DE00021B1042905D0082923D105E05C4D056007
:101DF00022E05B4D05601FE0544D6D6805F47012E4
:101E0000524D6D6805F48034022505EB92421CB9F1
:101E1000544D554305600BE04C4D6D6805F400359D
:101E20001DB1504D5543056002E04D4D55430560D1
:101E300002E04B4D056000BF00BF444D6D6805F0EA
:101E4000F0010909484D6B5C0568DD4045603F4D78
:101E50006D6805F4E061090A434D6B5C4568DD403F
:101E600085603A4D6D6805F46051C90A3E4D6B5C62
:101E70004568DD40C560354D6D6805F44041890B0E
:101E80003A4D6B5CC568B5FBF3F5056130BD29B112
:101E90002E4A526902432D4B5A6104E02B4A526983
:101EA00082432A4B5A61704729B1284A92690243FA
:101EB000264B9A6104E0254A92698243234B9A613A
:101EC000704729B1214AD2690243204BDA6104E00C
:101ED0001E4AD26982431D4BDA61704729B11B4A01
:101EE000D2680243194BDA6004E0184AD268824390
:101EF000164BDA60704729B1144A12690243134B3A
:101F00001A6104E0114A12698243104B1A6170474A
:101F100012494039086070470F49C86470470B493F
:101F2000C87170470948406A40F0807007494862AC
:101F3000704701460020054A92680A400AB1012014
:101F400000E000207047014988727047001002408D
:101F50000000FFF8FFFFF6FE00004242800442420C
:101F600000127A0000093D002B0000203B000020F9
:101F700010B50446FB48844209D101218803FFF7CC
:101F8000ADFF00214FF48040FFF7A8FF32E0F64894
:101F9000844209D101214804FFF7ADFF00214FF42D
:101FA0000030FFF7A8FF25E0F048844209D1012165
:101FB0008804FFF7A0FF00214FF48020FFF79BFF6C
:101FC00018E0EB48844209D10121C804FFF793FFD0
:101FD00000214FF40020FFF78EFF0BE0E54884421C
:101FE00008D101210805FFF786FF00214FF480107A
:101FF000FFF781FF10BD2DE9F04786B005460E467C
:102000000024A24600BFA1460027B08900B100BF4E
:102010002F462C8A4CF6FF700440F08804432C8233
:10202000AC894EF6F3100440B088318908437189B9
:1020300008430443AC81AC8A4FF6FF400440B089AA
:102040000443AC8201A8FFF7C2FEC648874202D112
:10205000DDF810A001E0DDF80CA0A88900F4004034
:1020600040B10AEBCA0000EB0A1031684900B0FB2E
:10207000F1F807E00AEBCA0000EB0A1031688900AA
:10208000B0FBF1F86420B8FBF0F0040120096421F2
:1020900001FB1089A88900F4004040B1322000EB18
:1020A000C900B0FBF1F000F00700044308E0322063
:1020B00000EB09106421B0FBF1F000F00F000443C5
:1020C0002C8106B0BDE8F0874FF416510160002165
:1020D0008180C18001810C21418100218181704773
:1020E00010B502460020108A4FF2FF0318400B88FB
:1020F0004C8823438C882343CC8823431843108285
:1021000010BD0021018041808180C180704721B1D4
:10211000828942F40052828104E082894DF6FF7385
:102120001A4082817047F0B503460024002600253E
:10213000002040F66A17B94200D100BF1846C1F32B
:10214000421401F01F06012707FA06F5012C01D100
:102150000C3004E0022C01D1103000E014301AB130
:1021600007682F43076002E00768AF430760F0BDD0
:102170001AB1838A0B43838202E0838A8B43838272
:102180007047028A4FF6F0731A400282028A0A43AD
:102190000282704782894FF2FF731A4082818289DE
:1021A0000A438281704721B1828942F00202828112
:1021B00004E082894FF6FD731A4082817047028ADB
:1021C0004FF6DF731A400282028A0A430282704786
:1021D00021B1028A42F48042028204E0028A4BF674
:1021E000FF731A4002827047C1F308028280704771
:1021F00001468888C0F308007047818941F00101D9
:1022000081817047028BD2B20283028B42EA0122A3
:1022100002837047028B02F47F420283028B0A43DF
:102220000283704721B1828A42F02002828204E058
:10223000828A4FF6DF731A408282704721B1828A08
:1022400042F01002828204E0828A4FF6EF731A4055
:102250008282704721B1828A42F00802828204E0C1
:10226000828A4FF6F7731A408282704721B18289C1
:1022700042F40042828103E08289C2F30E0282812D
:10228000704721B1828A42F40062828204E0828A2D
:102290004FF2FF731A4082827047828A4FF6FB73B7
:1022A0001A408282828A0A438282704721B1828ADE
:1022B00042F00202828204E0828A4FF6FD731A40E5
:1022C0008282704702460020B1F5007F00D100BF36
:1022D00013880B400BB1012000E00020704701F48F
:1022E0000072B2F5007F00D100BFCA430280704780
:1022F00070B50246002400230025002040F66A162F
:10230000B14200D100BFC1F3421501F01F03012605
:1023100006FA03F3012D02D19689334006E0022D1F
:1023200002D1168A334001E0968A33400C1201260E
:1023300006FA04F41688344013B10CB1012000E011
:10234000002070BD10B50022002340F66A14A1429F
:1023500000D100BF0A1201249440A3B2DC430480E0
:1023600010BD00000038014000440040004800401B
:10237000004C00400050004001684FF6FE721140D2
:1023800001600021016041608160C1608D49884227
:1023900008D18C490839496841F00F01894A083A47
:1023A00051608AE087491431884208D1854908394B
:1023B000496841F0F001834A083A51607DE0814963
:1023C0002831884208D17F490839496841F4706151
:1023D0007C4A083A516070E07A493C31884208D121
:1023E00078490839496841F47041764A083A5160A1
:1023F00063E074495031884208D17249083949680C
:1024000041F470216F4A083A516056E06D496431D9
:10241000884208D16B490839496841F47001694A1A
:10242000083A516049E067497831884208D16549E6
:102430000839496841F07061624A083A51603CE0ED
:102440006149884206D1011F096841F00F01021F4E
:10245000116032E05C491431884208D15A49091FA1
:10246000096841F0F001584A121F116025E05649F1
:102470002831884208D15449091F096841F4706124
:10248000514A121F116018E04F493C31884208D16F
:102490004D49091F096841F470414B4A121F1160F0
:1024A0000BE049495031884207D14749091F096863
:1024B00041F47021444A121F1160704710B5002288
:1024C000026847F6F0739A430C6A8B6823430C69E1
:1024D00023434C6923438C692343CC6923434C6ACF
:1024E00023438C6A23431A430260CB6843600B6822
:1024F00083604B68C36010BD002101604160816052
:10250000C160016141618161C161016241628162B9
:10251000704721B1026842F00102026004E00268E3
:102520004FF6FE731A40026070471AB103680B43FE
:10253000036002E003688B430360704741607047AB
:102540000146486880B2704701460020002201F031
:1025500080531BB11C4B083B1A6802E0194B083B27
:102560001A6802EA01030BB1012000E00020704765
:1025700000F0805119B11449091F086002E01149A7
:1025800008394860704701460020002201F080535E
:102590001BB10D4B083B1A6802E00A4B083B1A6856
:1025A00002EA01030BB1012000E00020704700F0B7
:1025B000805119B10449091F086002E00149083936
:1025C00048607047080002400804024010B5044605
:1025D000FA48844208D101214015FFF77FFC002111
:1025E0006015FFF77BFC17E0F548844208D1012114
:1025F0000015FFF773FC00212015FFF76FFC0BE0BF
:10260000F048844208D10121C803FFF767FC00218C
:102610004FF40040FFF762FC10BD30B502460020C9
:1026200000235068E84C20400D790C6844EA0524EA
:10263000204350609068E54C2040D1E902542C437F
:102640004D7944EA450420439060D06A20F470003C
:102650000C7C641EE4B2234340EA0350D06230BDD8
:1026600000210160017141718160C160012101742B
:10267000704721B1826842F00102826003E0826803
:1026800022F001028260704721B1826842F48072B8
:10269000826003E0826822F480728260704710B525
:1026A0000023CBB21AB144681C43446002E0446882
:1026B0009C43446010BD816841F00801816070470F
:1026C000014600208A6802F008020AB1012000E0F9
:1026D00000207047816841F0040181607047014625
:1026E00000208A6802F004020AB1012000E0002004
:1026F000704721B1826842F4A002826003E08268E0
:1027000022F4A00282607047014600208A6802F429
:1027100080020AB1012000E00020704710B50A468F
:1027200000210023416821F46041531E41EA4331F6
:10273000416010BD21B1426842F40062426003E092
:10274000426822F4006242607047F0B504460D46CC
:1027500000200021092D11DDE068A5F10A0606EB35
:102760004607072606FA07F18843A5F10A0606EB95
:10277000460603FA06F10843E0600CE0206905EB29
:102780004507072606FA07F1884305EB450603FAD5
:1027900006F108432061072A0FDA606B561E06EB2C
:1027A00086071F2606FA07F18843561E06EB8606A3
:1027B00005FA06F10843606322E00D2A0FDA206B68
:1027C000D61F06EB86071F2606FA07F18843D61F99
:1027D00006EB860605FA06F10843206310E0E06A7E
:1027E000A2F10D0606EB86071F2606FA07F18843BD
:1027F000A2F10D0606EB860605FA06F10843E06233
:10280000F0BD21B1826842F48012826003E08268E8
:1028100022F48012826070470146C86C80B2704713
:1028200066484C300068704721B1426842F48062CB
:10283000426003E0426822F480624260704721B146
:10284000426842F48052426003E0426822F48052BF
:10285000426070470A460021816821F4E04111433B
:102860008160704721B1826842F40042826003E0D7
:10287000826822F400428260704721B1826842F48B
:102880000212826003E0826822F4021282607047C2
:10289000014600208A6802F400120AB1012000E01B
:1028A00000207047F0B5044615460020002200269F
:1028B000092911DDE068A1F10A0707EB470C07279A
:1028C00007FA0CF29043A1F10A0707EB470703FA56
:1028D00007F21043E0600CE0206901EB410C072790
:1028E00007FA0CF2904301EB410703FA07F2104399
:1028F0002061A06BC0F30156EF1C06F1010CA7EBA1
:102900000C0707EB870C1F2707FA0CF29043EF1C0C
:1029100006F1010CA7EB0C0707EB870701FA07F29A
:102920001043A063F0BD10B50A4600210023816B5F
:1029300021F44011531E41EA0351816310BD08B5D3
:10294000002300930090009B0B440093009B1A60AF
:1029500008BD08B5024600200090009201F1280051
:10296000009B184400900098006880B208BD0A4699
:1029700000214168164B1940114341607047416284
:10298000826270470A460021416821F01F0111430D
:102990004160704740B109490831096841F40001BC
:1029A000064A0832116007E004490831096821F439
:1029B0000001024A08321160704700000024014003
:1029C00000280140003C0140FFFEF0FFFDF7F1FF51
:1029D000FFFD3FFF0246002013680B400BB10120B2
:1029E00000E000207047CA430260704770B502469D
:1029F0000020002300240B125568CEB205EA06041D
:102A000015681D4015B10CB1012000E0002070BD1B
:102A100000220A12D34303607047000010B5044639
:102A2000F748844209D101214805FFF764FA0021E3
:102A30004FF40010FFF75FFA08E001218805FFF767
:102A40005AFA00214FF48000FFF755FA10BD2DE926
:102A5000F04385B004460D460026B1460427DFF852
:102A6000A483A6884FF6C07006406846FFF7AFF90A
:102A7000DDF80880E448B8FBF0F01FFA80F946EA78
:102A80000906A68020884FF6FE71084020800026A7
:102A9000DE49286888420CD828684000B8FBF0F06E
:102AA00087B2042F00DA04273E4309F10100208495
:102AB00027E0E8884BF6FF71884206D1286800EBD2
:102AC0004000B8FBF0F087B209E0286800EBC001D5
:102AD00001EB0010B8FBF0F087B247F48047C7F372
:102AE0000B0008B947F0010747F4004006434FF4D4
:102AF000967009FB00F04FF47A7190FBF1F0401CE6
:102B00002084A683208840F00100208026884FF68C
:102B1000F5300640A8886989084306432680A889BD
:102B200029890843208105B0BDE8F08341F288314E
:102B30000160002181804BF6FF71C180002101817D
:102B400041814FF480418181704721B1028842F078
:102B50000102028004E002884FF6FE731A400280F0
:102B6000704721B1828842F40062828004E082884A
:102B70004FF2FF731A408280704721B1828842F47D
:102B80008052828004E082884EF6FF731A40828071
:102B9000704721B1028842F48072028004E002880A
:102BA0004FF6FF631A400280704721B1028842F459
:102BB0000072028004E002884FF6FF531A40028040
:102BC000704721B1028842F48062028004E00288EA
:102BD0004FF6FF331A40028070470A460021818970
:102BE0004FF60173194002F0FE03194381817047CB
:102BF00021B1828942F00102828104E082894FF68C
:102C0000FE731A408281704721B1028842F040026F
:102C1000028004E002884FF6BF731A4002807047BA
:102C20001AB183880B43838002E083888B438380BF
:102C30007047018270470146088AC0B2704712B1DE
:102C400041F0010102E04FF6FE7319400182704726
:102C500008B50246002000900092009808440090B9
:102C60000098008808BD21B1028842F40042028029
:102C700003E00288C2F30E0202807047B1F5006FD4
:102C800004D1028842F40062028004E002884FF21C
:102C9000FF731A4002807047B1F5005F04D10288CB
:102CA00042F40052028004E002884DF6FF731A409D
:102CB0000280704721B1028842F48052028004E011
:102CC00002884EF6FF731A4002807047B1F5006F1C
:102CD00004D1028842F40062028004E002884FF2CC
:102CE000FF731A400280704721B1028842F020022F
:102CF000028004E002884FF6DF731A4002807047BA
:102D00000146088B0012704721B1028842F0100280
:102D1000028004E002884FF6EF731A400280704789
:102D200021B9028842F08002028004E002884FF656
:102D30007F731A4002807047B1F5804F05D0828BB7
:102D40004BF6FF731A40828303E0828B42F4804289
:102D50008283704770B502460024002500230020BE
:102D6000958A138B1B0445EA030626F07F4404EA88
:102D700001068E4201D1012000E0002070BD10B597
:102D800001460020002300228B8A0A8B120443EAAA
:102D9000020424F07F4010BD0CB502460020002341
:102DA0000193009300920B0F019321F07F41019B4F
:102DB0001BB1009B1433009303E0090C009B1833F4
:102DC0000093009B1B680B400BB1012000E000202A
:102DD0000CBD002221F07F42D3438382704730B57F
:102DE000024600200023948801F0E06504EA1543C0
:102DF00021F07F41948A0C4054B14BB1012008E08E
:102E00000054004000127A0040420F00A0860100EA
:102E1000002030BD002221F07F42D34383827047DF
:102E2000704700000FB4044910B503AA029800F0DF
:102E3000E9FB10BC5DF814FB200000200FB41CB5AA
:102E4000074B06AA7B4469460090059800F0C1FB39
:102E50000020694600F0D0FB1CBC5DF814FB0000AC
:102E6000B10700002DE9F0410646002410687529DD
:102E7000314616A510D0AFF30080002802DA404298
:102E800013A507E031688A0701D512A502E04907BA
:102E900004D511A5012401E0AFF3008000210A222E
:102EA00006F1240709E0B0FBF2FCB0FBF2F302FBF1
:102EB0001C00303078541846491C0028F3D12346B2
:102EC0002A463046BDE8F04100F018B90000000085
:102ED0002D0000002B000000200000002DE9F05F15
:102EE000894604464FF0000ADFF824B1FB44C0F8DD
:102EF00020A02046E168884700287DD0252806D0FC
:102F0000D4E901219047206A401C2062F1E70025A6
:102F10005F462046E16888472028064607DB312EB9
:102F200005D2B81910F8200C08B10543F1E7A8073D
:102F300001D525F00405C4F81CA00027C4F818A08A
:102F40002A2E09D0304601F0AAF838B304EB8708DE
:102F5000303EC8F8186019E059F8041B204604EB0D
:102F600087029161E1688847012F064618D1E06920
:102F7000002820DA25F020051DE0D8F8180000EB25
:102F8000800006EB40003038C8F818002046E168A1
:102F90008847064601F083F80028EED1012F0AD0B9
:102FA0002E2E08D12046E16888477F1C0646022F56
:102FB00045F02005C4DBA069002803DA404245F053
:102FC0000105A061E80701D025F01005A6B1A6F122
:102FD0004100192802D8203645F400654A4631469A
:102FE000204625604D46FDF7BBF860B1012807D0AB
:102FF000ED1D25F0070000E007E000F1080978E783
:1030000005F1040975E730467AE7206ABDE8F09FCC
:103010007F29000010B5431C02E010F8011B71B1BC
:103020008107FAD14FF0013202C88C1A8C4314EA9E
:10303000C211F9D0C01A0A0603D0C01E10BDC01AB2
:1030400010BD0A0401D0801E10BD0902FCD0401E34
:1030500010BD02F0FF0343EA032242EA024200F0FD
:1030600002B84FF000020429C0F0128010F0030CE7
:1030700000F01B80CCF1040CBCF1020F18BF00F86B
:10308000012BA8BF20F8022BA1EB0C0100F00DB81A
:103090005FEAC17C24BF00F8012B00F8012B48BF78
:1030A00000F8012B70474FF0000200B5134694461C
:1030B0009646203922BFA0E80C50A0E80C50B1F190
:1030C0002001BFF4F7AF090728BFA0E80C5048BFA4
:1030D0000CC05DF804EB890028BF40F8042B08BF42
:1030E000704748BF20F8022B11F0804F18BF00F83E
:1030F000012B704770477047704770472DE9F047C4
:103100000D4699469246044600F124080168880657
:1031100004D5E06921F01001216000E00120A842FF
:1031200001DD471B00E00027A1697A1902EB0900C5
:10313000081AA0612078C00602D42046AFF30080B0
:10314000002608E0D4E901211AF806009047206A19
:10315000401C761C20624E45F4DB2078C0060AD560
:103160002046AFF3008006E0D4E9012130209047EB
:10317000206A401C2062381EA7F10107F4DC07E03A
:10318000D4E9012118F805009047206A401C20620C
:10319000281EA5F10105F3DC2046AFF3008020785E
:1031A000000602D50220BDE8F0870120FBE770474A
:1031B0002DE9FF4F0C461E464FF0FF378BB0D2E98A
:1031C0000001DDF860800A908A46C1F30A5505B90E
:1031D0003D46002108464FF00000BAF1000F00F410
:1031E000400005DA00EB80004FF4400101EA500096
:1031F0004FEA9059B9F1010F00DDB9460A9850EA3B
:103200004A000ED044F61050A5F2FF3545432F1466
:10321000B8F1000F1ED07542291E1EDDC9F1000253
:103220001CE0B8F1010F4FF0000001D0302103E0A5
:10323000F24305E02154401CB042FBDB3046002243
:10324000002121540B99C1F80880C1E900200FB07A
:10325000BDE8F08FBD1B6D1CDEE74A4600DA69420F
:1032600006A800F06BFA06AB93E8070003AB83E80F
:10327000070050460A9900F043FB8DE80700A0F5CF
:1032800000501F3800900398002D09DD42F21F0105
:103290004A46084403A90390684600F0A2FD08E0EE
:1032A000A0F500504A461F3803A90390684600F075
:1032B000ACFD8DE807000004000C03D04FF0FF3098
:1032C000410800E01046B8F1000F03D00022009240
:1032D00015461EE0751E05D400F0AAF9303262557D
:1032E0006D1EF9D5B3460122084302D000227F1C8F
:1032F00004E02078302801D100227F1E002A09979F
:1033000086D01DE0112D07DA00F092F930326255B7
:103310006D1C50EA0102F5D1084302D00098C8B1F3
:103320000EE00021681E05E0235C625C63542254B9
:10333000401E491C8142F7DBAB46A81B401E09908A
:10334000002004F80B000B98099AC0F80880C0E927
:10335000002B7CE711264FF0000859E72DE9F04FCC
:1033600088460446D21D22F0070191B0D1E9000140
:10337000CDE90A0100F07FFE02460B98C00F01D094
:103380002D2007E02068810701D52B2002E02021B5
:1033900001EAC000032A099001D0072A05DB034691
:1033A0004146204600F08AF90BE12078800601D5DD
:1033B000E06900E00620B8F1650F814606D0B8F15B
:1033C000660F18D0B8F1670F70D131E00020B9F165
:1033D000110F009001DB112301E009F101030AAA9A
:1033E00001A90CA8FFF7E4FEDDE90C70002609F145
:1033F0000105834647E001204B4600904FF000470F
:103400000AAA01A90CA8FFF7D3FEDDE90DB00C99BB
:103410005D46002610B909F101000D18B9EB050051
:1034200003D4C0F1FF3609F10105A5EB09002BE03B
:10343000B9F1010F01DA4FF001090020B9F1110FC4
:103440000090484601DD112300E003460AAA01A9C5
:103450000CA8FFF7ADFEDDE90C704D460026834653
:10346000207800070AD4AB4500DA5D4601A8012D9B
:1034700004DD411911F8011C302907D04F4502DA4B
:1034800017F1040F04DA012082460FE06D1EEEE70B
:10349000002F02DCED1B3E4403E0781CA84200DD57
:1034A0007D1CB81B00F1010A4FF00047207800078F
:1034B00003D4AA4501DB4FF0FF3A0021B7F1004FDA
:1034C0000DF143088DF8431024D002202B23002F48
:1034D00001DA7F422D230A21021EA0F1010000DC47
:1034E0005FB197FBF1FC97FBF1F201FB1C7C1746E7
:1034F0000CF1300C08F801CDEEE7A8F101000370E3
:103500002188090501D5452100E06521A0F10108C8
:1035100000F8011C09980FA9A1EB0807FF1D00B1D5
:103520000120411901EBEA70A1693844081A401ED4
:10353000A0612078C00602D42046AFF3008009982D
:1035400028B1D4E901219047206A401C20622078EC
:10355000C00622D52046AFF300801EE0002E04DB1B
:10356000B34502DD01A8805D00E03020D4E90121EF
:103570009047206A401C2062761CAAF101005FEA95
:10358000000A0AD100F050F8C0680168405CD4E934
:1035900001219047206A401C2062281EA5F10105E8
:1035A000DCDC07E0D4E9012118F8010B9047206A20
:1035B000401C2062381EA7F10107F3DC2046AFF360
:1035C0000080032011B043E601694A1C02610878BB
:1035D000704700B58FB0CDE9013100210591054953
:1035E0007944CDE9031011466846FFF777FC0FB028
:1035F00000BD0000E5FFFFFF0A6802F8010B0A604A
:1036000070470000074B70B50D467B44FFF7E1FFA4
:103610000446284600F000F910B14FF0FF3070BDAD
:10362000204670BD5BDDFFFF00487047540200205C
:1036300030B5B0F10A024FEA900E71F100034EEA84
:10364000817EB0EB0E0061EB91014FEA101E4EEA55
:10365000017E10EB0E0041EB11114FEA102E4EEAE5
:10366000016E10EB0E0041EB11214FEA104E4EEAB5
:10367000014E10EB0E0041EB1141401841F10001E9
:103680004FEAD00040EA41704FEAD10110EB8005CB
:103690004FEA810444EA907444EB01046D1944EB51
:1036A0000404521BA3414FF0000348BF0A3200D567
:1036B00030BD401C41F1000130BD00002DE9F0415A
:1036C0001F46044603260168072A01F4006004DB54
:1036D00008B116A505E016A503E008B115A500E0A0
:1036E00015A521F010002060A069C01EA0610FB1D7
:1036F000401EA0612046AFF300804FB1D4E9012104
:1037000038469047206A401C2062C01C206206E0B8
:10371000206AFAE7D4E9012115F8010B9047761EDB
:10372000F8D22046AFF30080BDE8F0814E414E0054
:103730006E616E00494E4600696E66002DE9F047E5
:10374000814616468AB0334878440DC88DE80D008E
:1037500030487844801C03AC0DC884E80D0041F665
:103760009B300844372190FBF1F290FBF1F5A5F175
:10377000800501FB12041B3C02D56442012000E0DD
:103780000020DFF890A080460027FA44AAF1BE0A84
:103790000DE0E00709D03246684607EB47010AEB27
:1037A000810100F032FB8DE8070064107F1C002CC3
:1037B000EFD1184F7F44AC3F18E0E80714D007EB77
:1037C00004100DF1180A90E80E008AE80E00C06897
:1037D000F04201D198190890324606A903A800F0DA
:1037E00014FB03AB83E807006D10641C002DE4D1CB
:1037F00032466946B8F1000F03A802D000F0F1FA92
:1038000001E000F002FBC9E90001C9F808200AB094
:10381000BDE8F087B0210000007B00F08000704719
:1038200000487047340200207546FFF7F9FFAE46A6
:1038300005006946534620F00700854618B020B5BC
:10384000FDF798FFBDE820404FF000064FF000075D
:103850004FF000084FF0000B21F00701AC46ACE838
:10386000C009ACE8C009ACE8C009ACE8C0098D46A5
:1038700070470446AFF300802046FCF78EFC000042
:103880004FF0013C50F8042B51F8043B9A4221D1EF
:10389000A2EB0C03934313EACC1317D150F8042B7B
:1038A00051F8043B9A4215D1A2EB0C03934313EA5F
:1038B000CC130BD150F8042B51F8043B9A4209D198
:1038C000A2EB0C03934313EACC13DBD04FF00000C0
:1038D000704700BFD01A01BAB1FA81F101F01801A6
:1038E00022FA01F0CB40C1F12001DBB2C0B2C01A14
:1038F0002CFA01F3D11A914311EAC311E6D17047B2
:103900005FEA400C08BF91F0000F4FEA8C234FEAAA
:10391000C12243EA51514FEA1C5018BF00F5F04054
:103920004FEA300018BF41F000415FEA6C5C00F0E4
:103930002980BCF1FF3F08BF40F080407047130C66
:1039400006BF12044FF0100C4FF0000C130E04BF12
:1039500012020CF1080C130F04BF12010CF1040C3D
:10396000930F04BF92000CF1020CD30F04BF52005E
:103970000CF1010C11464FF00002A0F11F00A0EB6A
:103980000C00704711F0004F08BF704731F0004144
:103990003FF4D5AF0B0C06BF09044FF0100C4FF0ED
:1039A000000C0B0E04BF09020CF1080C0B0F04BF36
:1039B00009010CF1040C8B0F04BF89000CF1020CFF
:1039C000CB0F04BF49000CF1010CCCF12003A0EB9C
:1039D0000C0022FA03F302FA0CF241EA030100F1AF
:1039E0000100704720F07F4C80EA030023F07F47FE
:1039F000ACEB070303F57C5300F0004003F1FF0339
:103A00002DE980494FEA154B09B44FEA144325EAE2
:103A10000B4E24EA03480FF2042606EB132749084D
:103A20003E785FEA320203FB0667C7F5000707FB33
:103A300006F64FEA54374FEAD64606F1020607FB70
:103A4000066CCCF1005C4FEA1C472CEA074C07FBE4
:103A500006F40CFB06F504EB15464FEA961634BF48
:103A600000204FF000404FEAD13706FB07FC4FEA39
:103A70001C4C0CFB0BF7D21B03FB0CF761EB070193
:103A80000CFB0EF7B0EB074072EB17420CFB08F78C
:103A900034BFA2EB0742B2EB074261EB17414FEA9A
:103AA0000C444FEA910706FB07FC4FEA1C4C0CFB49
:103AB0000BF7B0EBC74072EB573203FB0CF734BF88
:103AC000A2EBC742B2EBC74261EB57310CFB0EF7DA
:103AD000B0EBC70072EB57720CFB08F734BFA2EBD8
:103AE000C702B2EBC70261EB5771039F4FEA8161D6
:103AF00041EA921104EBCC044FEAD1374FEA8262DB
:103B000006FB07FC42EA90124FEA80604FEA1C4C29
:103B10000CFB0BF7D21B03FB0CF761EB07010CFB53
:103B20000EF7B0EB074072EB17420CFB08F734BFFF
:103B3000A2EB0742B2EB074261EB17414FEA8C550B
:103B40004FEA910704EB9C2406FB07FC4FEA1C4C50
:103B50000CFB0BF7B0EBC74072EB573203FB0CF7D3
:103B600034BFA2EBC742B2EBC74261EB57310CFB4B
:103B70000EF7B0EBC70072EB57720CFB08F734BFBF
:103B8000A2EBC702B2EBC70261EB577115EB4C25F4
:103B90004FEA816141EA92114FEA82624FEAD137DE
:103BA00042EA901206FB07FC44F100044FEA8060F1
:103BB0004FEA1C4C0CFB0BF7D21B03FB0CF761EB21
:103BC00007010CFB0EF7B0EB074072EB17420CFB42
:103BD00008F734BFA2EB0742B2EB074261EB174193
:103BE00015EB1C154FEA813141EA92414FEA8232CE
:103BF00042EA90424FEA80304FEA0C7644F10004EA
:103C000048EA03434EEA0B484FF0000EB2EB080CB3
:103C100071EB030724BF624639464EEB0E0E4FF0A0
:103C2000000B0018524149414BEB0B0BB2EB080C57
:103C300071EB03077BF1000B24BF624639464EEB64
:103C40000E0E4FF0000B0018524149414BEB0B0B8D
:103C5000B2EB080C71EB03077BF1000B24BF62464B
:103C600039464EEB0E0E51EA020718BF46F0010628
:103C700016EB0E7655F1000254F1000103D5BDE8B4
:103C80008901BDE80088BDE88901BDE80048B61992
:103C9000524141EB0101A3F10103704780807F7E17
:103CA0007D7C7B7A797877767675747372717170B2
:103CB0006F6E6E6D6C6C6B6A6A6968686766666564
:103CC0006464636362616160605F5F5E5E5D5D5CF2
:103CD0005C5B5B5A5A595958585757565655555563
:103CE0005454535352525251515050504F4F4F4EC3
:103CF0004E4D4D4D4C4C4C4B4B4B4A4A4A49494911
:103D00004848484747474746464645454544444452
:103D1000444343434342424242414141002B26D463
:103D2000770021D01CB54FEA370703B44FF01000DD
:103D30004FF010014FF000000FBCBDE810400BF138
:103D4000010BBBF1010F08BF5FEA170722BF12F199
:103D5000010211F101014FF0004143F1000300F0B5
:103D6000004043EA00007047F9D35708DAE746EA13
:103D7000064613F1400F4FEA16461FDD13F1200FE0
:103D8000DFBF16430A46002120335B42C8D0C3F18F
:103D9000200746EA064602FA07F74FEA164646EAC1
:103DA0000706C3F1200722FA03F201FA07F721FA06
:103DB00003F14FF0000342EA0702B1E746EA0206C8
:103DC00046EA06464FEA164646EA0106BCBF46EA00
:103DD0000646360C4FF000034FF000024FF0000192
:103DE0009EE72DE9C048934630B491E8380007C8F3
:103DF00031EA400C48BF34EA430C03D5FFF7F2FD2B
:103E0000FFF78CFFF0BCBDE800882DE9C048934661
:103E100030B491E8380007C810F0804F08BF13F0A5
:103E2000804F03D100F005F8FFF778FFF0BCBDE844
:103E3000008820F07F4780EA030023F07F4C07EBE7
:103E40000C03A3F57C5300F00040A3F1FE0392F0B5
:103E5000000F00F0B38095F0000F00F077802DE99F
:103E600001494FEA11404FEA144621EA004800FB9D
:103E700006FC24EA064708FB06F607FB08F800FBE9
:103E800007F718EB06484CEB164C4FEA124B18EBB1
:103E900007484FEA15464CEB174022EA0B4E0BFB46
:103EA00006FC25EA06470EFB06F607FB0EFE0BFB9B
:103EB00007F71EEB064E4CEB164C4FF000061EEBC0
:103EC000074E4CEB174B18EB0B0840F1000018EBBA
:103ED0000E0B58EB000840F100008F1A4FF0000164
:103EE0003CBFC943661B14BFB5EB040C00213CBFAB
:103EF000C943F61B4FEA17444EEA8E0E27EA0445E3
:103F00004FEA1C4704FB07622CEA074C05FB07F746
:103F10000CFB05F604FB0CFC16EB074642EB1742C4
:103F200016EB0C4642EB1C421BEB060658EB02025A
:103F3000414146EA9E0601D5BDE80189B6195241C4
:103F400041EB0101A3F10103BDE801894FEA1445EA
:103F50004FEA114724EA054621EA074C05FB07F41E
:103F600006FB07F70CFB06F105FB0CFC11EB074108
:103F700044EB17444FEA124711EB0C4144EB1C444D
:103F800022EA074C05FB07F206FB07F70CFB06F6D7
:103F900005FB0CFC16EB074642EB174216EB0C46F2
:103FA00042EB1C456A1854F1000148BF7047B6192E
:103FB000524141EB0101A3F10103704795F0000F5D
:103FC00037D04FEA11424FEA144721EA024624EA69
:103FD000074C02FB07F106FB07F70CFB06F402FB9C
:103FE0000CFC14EB074441EB17414FEA154714EB67
:103FF0000C4441EB1C4125EA074C02FB07F506FB8C
:1040000007F70CFB06F602FB0CFC16EB074645EB2C
:10401000174516EB0C4645EB1C42121951F10001F5
:1040200048BF7047B619524141EB0101A3F10103AA
:1040300070474FEA14454FEA114724EA054621EA42
:10404000074C05FB07F106FB07F70CFB06F24FF0E8
:10405000000605FB0CFC12EB074241EB174112EB8B
:104060000C4251EB1C4148BF7047921841EB0101D3
:10407000A3F101037047490050EAC12018BF042092
:104080004A0D18BF40F0010040F2FF72B2EB515FE1
:1040900008BF40F00200012808BF052070473038F3
:1040A0000A2801D2012070470020704710B500296E
:1040B0000AD00878002807D005487844FFF7E0FBCD
:1040C000002801D0002010BD0248784410BD000037
:1040D000BE180000B618000021F00042A2F16052A4
:1040E000B2F5801F01F0004328BFD2F17F6C0BD9DD
:1040F0005FEA001C43EAC20242EB507018BF7047EF
:1041000028BF20F001007047B2F5801FBCBF1846E1
:1041100070474FEA410C1CF5001F02D2084600F020
:104120000FBE70B500F010FB00000089FFF7F6BF6E
:104130004FF00040A0F580007047000010B591EAF4
:10414000030F48BF83F0004300F19083841A71EBA2
:10415000030C05D2121943EB0C03001B61EB0C019D
:10416000DFF824E14FEA1154A4EB135C1EEA430F7D
:1041700018BF9EEA445F73D023EA0E03DCF1200EE1
:1041800021EA045143F4801332D322FA0CFE10EBDF
:104190000E0023FA0CFE41EB0E01CCF1200E03FAC7
:1041A0000EFE10EB0E0051F10001B1F5801FCCF1B5
:1041B000200E32D201EB045112FA0EF2BDE810408B
:1041C00058BF7047401C38BF5FEA420218BF7047B3
:1041D000002814BF20F0010041F100014FEA410323
:1041E00013F5001F38BF7047A1F1C04100F0FABAC3
:1041F000012A43EB0302ACF1200CDCF11F0E32BFAD
:104200004FF0000E23FA0CF310EB030041EB0451C6
:10421000B4EB115FD0D0A1EB045101F58011490836
:104220005FEA300001EB04510ED350F1000038BFBB
:1042300012FA0EFE08D1BDE81040C9E7401C38BF95
:104240005FEA4202CAD1C3E7BDE810404FEA41032A
:1042500013F5001F38BF7047A1F1C04100F0C2BA8A
:104260009EEA445F08D011EA5E0FBDE8104004BF2B
:1042700001F0004100207047BDE8104070B500F02B
:1042800063FA00BF64FBBE3E0000E0FF491058BF68
:10429000C1F140415B1058BFC3F140438B42EFF383
:1042A000008070472DE9C04130B4DFF8A0C23CEA7D
:1042B000111418BF3CEA131400F0EC8081EA0305E6
:1042C0001CEA111444EAD57418BF1CEA131500F057
:1042D000C780A4EB05044FF0004545EAC12145EA3B
:1042E000C32341EA505143EA525304F17F74994287
:1042F00004F500344FEAC0204FEAC22208BF9042C2
:1043000000F09C804FEA13650FF24016765D4FEA8D
:10431000134506FB05F7C7F1807706FB07F74FEA61
:10432000D737A7FB03687642C8F58038A7FB06CECF
:1043300038BFA8F1010807FB08E64FF0000EA6FB06
:10434000028CE6FB03CEDCF1000CCEF1004E38BF50
:10435000AEF1010EA6FB0C584FF000074FF0000520
:10436000E6FB0E87A1FB08C6A0FB07CE16EB0E06E8
:1043700045F10005E1FB076515F1E04E7EBFA4F5B0
:1043800080345FEA46066D4116F1800745F100056D
:104390004FEA17274FEA066647EA0567A6F1DE46A9
:1043A000B6F1805F4FEA15251FD9384624F0010C7D
:1043B00005EBC471BCF1FE6F01EB0C1102D8F0BC2F
:1043C000BDE8008124425CBF01F5801E9EEAC47FE7
:1043D00002D4F0BCBDE80081244238D4F0BCA1F185
:1043E000C041BDE8004100F0FDB94FEAD22242EAE7
:1043F00043524FEAD323A7FB02864FEAD02040EA7C
:10440000415007FB03661EEA0E0F4FEAD12105FB60
:10441000026658BFA6EB0056B6EB00564FEA520EA6
:104420004EEAC37E18EB0E0E56EB530EBDD518EBBD
:1044300002085E417F1C55F10005B6E74FF4801578
:104440004FF000074FF000064FF00008ADE7F0BC5A
:104450004FF0000001F1C04101F00041BDE80081D2
:1044600011EA0C1F0CEA131500D00CE013EA0C1F24
:1044700000F025804FF00000F0BC81EA030101F05C
:104480000041BDE80081F0BCBDE8004181EA0301C4
:1044900000F0A8B9F0BCBDE8004170B500F054F9D7
:1044A000097EFC3E00F007B881EA03014FF00000EE
:1044B00001F00041704781EA030100F093B9F0BCBC
:1044C000BDE800414FF0000021497047FFFDFBF9B6
:1044D000F7F5F4F2F0EEEDEBE9E8E6E4E3E1E0DE37
:1044E000DDDBDAD8D7D5D4D3D1D0CFCDCCCBCAC8A9
:1044F000C7C6C5C4C2C1C0BFBEBDBCBBBAB9B8B7D0
:10450000B6B5B4B3B2B1B0AFAEADACABAAA9A8A8C2
:10451000A7A6A5A4A3A3A2A1A09F9F9E9D9C9C9B90
:104520009A9999989797969595949393929191903B
:104530008F8F8E8E8D8C8C8B8B8A898988888787CC
:104540008685858484838382828181800000FF0741
:104550000000F87FB0FA80F310FA03F10AD0C3F13B
:104560001D0303F580634FEA41504FEA035202EB0B
:10457000D12170474FF000007047000051EA030C52
:1045800017D41CF5801F58BFBCF5801F00F10680B2
:10459000994218BF704708BF9042704707D711F57E
:1045A000801F58BF13F5801F19D499427047894264
:1045B00070471CF5801F08D5BCF5801FF7D58B42CE
:1045C00018BF704708BF824270474FF4001C1CEBB5
:1045D000410F38BF1CEB430F01D28B42704770B5BF
:1045E00000F0B2F8922449004FF000514FF0805390
:1045F000FFF74CBEDFF848C170B51CEA111E1EBFA4
:104600001CEA13159EEA0C0F95EA0C0F00F06F8060
:1046100081EA030423EA4C134EEAD47E21EA4C11CA
:1046200041F4801143F48013AE44A1FB024CA0FB83
:104630000365AEF17F7E361955EB0C05A1FB034CEB
:104640004CF10003A0FB021C16EB0C06654153F174
:104650000003094218BF46F0010613F4007F0BD196
:104660004FEA03314FEA0530340341EA155140EA7D
:1046700016506FF003020AE04FEAC3214FEAC5204B
:10468000F40241EA555140EA56506FF0020202EB43
:104690002E4201EB025585EACE710AD05FEA440C46
:1046A00018BF24F0004450F1000041F1000120EA5D
:1046B000D47040F2FE7C624500D270BDA84214BFA7
:1046C0004FF080444FF04044002E08BF0024BEF15C
:1046D000806FA8BFA1F1C041BDE8704080F2828028
:1046E0004FF0000001F1C04101F0004170479EEA27
:1046F0000C0F0CEA131518BF95EA0C0F06D04FF0FB
:10470000000081EA030E0EF0004170BD00F01CF8BD
:104710008900013E00F007B800F009B84FEA430CE9
:104720005FEA5C5C08D081EA030100F05BB84FEA05
:10473000410C5FEA5C5CF6D14FF000000149704724
:104740000000FF070000F87F0EF1020E2EF0030EAE
:104750005EF8046B364205D4012A43EB030515F5D8
:10476000001F12D8012841EB010C1CF5001F0CD8CA
:104770000ED14FEAD17C15F5001F0CEB4C0C0CF15F
:10478000020C08BF4CEBD37C04E04FF0080C01E0B6
:104790004FEAD37C0CEB4C0526FA05F606F007062B
:1047A000B6F1040C06D20EEB860CBDE870404CF05E
:1047B000010C6047DFE80CF0090B02024FF00041EA
:1047C0004FF00000A1F5002170BD194610460128E8
:1047D00051EB010418BFD4F5001484BF002001F090
:1047E000004170BD0808A0F500114FEA3101704783
:1047F00053EA010C17D41CF5801F58BFBCF5801F6D
:1048000000F106808B4218BF704708BF8242704794
:1048100007D713F5801F58BF11F5801F19D48B429D
:1048200070479B4270471CF5801F08D5BCF5801F60
:10483000F7D5994218BF704708BF904270474FF4B0
:10484000001C1CEB430F38BF1CEB410F01D29942F7
:1048500070470FB40CBC03BCFFF7C1BE10B591EAA2
:10486000030F48BF83F000433FF570AC841A71EB2F
:10487000030C07D212198CF0004C43EB0C03001B05
:1048800061EB0C01DFF8A4E14FEA1154A4EB135CD7
:104890001EEA430F18BF9EEA445F00F0B08023EA8F
:1048A0006E03524221EA0451C3EB6E0338BF5B1E14
:1048B000DCF1200E25D322FA0CFE10EB0E0043FA99
:1048C0000CFE41EB0E01CCF1200E03FA0EFE10EBB4
:1048D0000E0051F10001CCF1200E29D412FA0EF293
:1048E00001EB0451BDE8104058BF7047401C1CBF8D
:1048F000B2F1004F704700280CBF491C20F00100A6
:10490000704712EB020E43EB030218BF4FF0010E8B
:104910004EEA4202ACF1200CDCF11E0E54D943FAEF
:104920000CFE10EB0E0051F1FF31CCF11E0ED5D56F
:104930000EF1010E12FA0EFE404141EB010101EBB6
:10494000445C5FEA5C5C10D910EBDE7001EB045153
:1049500038BFBEF1004FBDE8104018BF70470028B7
:104960000CBF491C20F00100704730D24FEAD42C14
:1049700011F5001124F400641BD0B1FA81F20B3A56
:10498000A41AA41ED2F12003914030FA03F3194374
:10499000904001EBCC71002C01EB0451BDE81040BC
:1049A000A8BF704701F1C0414FF0000001F0004185
:1049B0007047B0FA80F310FA03F100D110BDE41A89
:1049C000173C4805C90AE4E701EB045110BD491042
:1049D00001EB0451BDE810404FEA300002E04FF017
:1049E000000170474A0008BF0042F8D0B2F5001F2E
:1049F00028BF704701F000414FF0000070479EEA69
:104A0000445F07D011EA5E0FBDE8104004BF0021EB
:104A100000207047BDE8104070B5FFF795FE00BF5D
:104A200040DFF63E83F00041104670470000E0FF93
:104A300043004FEAD30C4FEA3C0C43401FBF4007F2
:104A40000CF1605113F0FE4F70471CF0006F03D162
:104A500000200CF0004170470CF0004343EA507016
:104A600010B540EACC0000F025F900BF000000922C
:104A70004FEA0001FFF7B6BE4FF000414FF00000D3
:104A8000A1F500217047401058BFC0F140404910C7
:104A900058BFC1F140418142EFF3008070470000F0
:104AA0004FF47F0C1CEAD0121EBF1CEAD11392EA0D
:104AB0000C0F93EA0C0F00F0858090EA010F48BFBD
:104AC00042F4807240F4000C41F400002CF07F416D
:104AD00020F07F4000B58142A2EB03020FF2081CD8
:104AE000ACEB504EC0F100009EF800E04FEA4E0ED5
:104AF00000FB0EFC38BF49004FEA2C1C02F5FA02FD
:104B00000CFB0EF34FEACE1E4FEA112C4FEAC121E7
:104B10000EEB635E42EB22420EFB0CFC4FEA1C5391
:104B200000FB03114FEA112C4FEA01310EFB0CFC84
:104B30004FEADC4C00FB0C11C14228BF09184CEBBA
:104B400003335DF804EB10EB410143EBC250B2F5C7
:104B50007C0F38BF704729D512F0F00F1CBF00F151
:104B6000C04000F0004070470081828384858687C2
:104B700088898B8C8D8E8F919293959697999A9C1C
:104B80009D9FA0A2A3A5A7A8AAACAEB0B2B3B5B78B
:104B9000B9BCBEC0C2C5C7C9CCCED1D4D7D9DCDF61
:104BA000E2E6E9ECF0F3F7FAFE0000004FEA400C11
:104BB0000CF1807CBCF17E4F28BF7047B0F1C04043
:104BC00000F0BEB890EA010F0CEAD11348BF42F4DE
:104BD0008072624538BF634507D213F47F0F16D049
:104BE00080EA010000F00040704710B500F062F864
:104BF000097EFC3E00F005B880EA010000F00040AC
:104C0000704780EA010000F0004000F099B812F40B
:104C10007F0F04BF0248704780EA010000F090B89F
:104C20000000C07FB0FA80F310FA03F2C3F19D03D5
:104C30000AD0D90501EB1220530638BF704700F1A6
:104C4000010008BF20F001007047000050EA010C8D
:104C500000F113801CF5000F58BFBCF5000F01D404
:104C60008842704707D710F5000F58BF11F5000FA5
:104C700015D488427047894270471CF5000F04D54F
:104C8000BCF5000FF7D5814270474FF0807C1CEBDC
:104C9000400F38BF1CEB410F01D28142704710B565
:104CA00000F008F8922449004FF000504FF0805176
:104CB000FFF7E9BE0EF1020E2EF0030E5EF8044B74
:104CC000244204D44FEA4102B2F17F4F11D84FEA97
:104CD0004003B3F17F4F0CD80ED14FEAD07CB2F134
:104CE0007F4F0CEB4C0C0CF1020C08BF4CEBD17C51
:104CF00004E04FF0080C01E04FEAD17C0CEB4C03D0
:104D000024FA03F404F00704B4F1040C06D20EEB09
:104D1000840CBDE810404CF0010C6047DFE80CF05B
:104D2000070802024FF00040A0F5800010BD0846C1
:104D3000420018BFD2F1807288BF00F0004010BD61
:104D4000FF2141EAD050C005704751EA000C00F144
:104D500013801CF5000F58BFBCF5000F01D4814231
:104D6000704707D711F5000F58BF10F5000F15D485
:104D700081427047894270471CF5000F04D5BCF58D
:104D8000000FF7D5884270474FF0807C1CEB410F35
:104D900038BF1CEB400F01D28842704780EA010007
:104DA00081EA000180EA0100FFF779BFFEF7D6BA79
:104DB0000000000000000000002F000000000700BD
:104DC000070000147F147F1400242A7F2A12006237
:104DD00064081323003649552250000005030000E3
:104DE00000001C224100000041221C000014083E6B
:104DF00008140008083E0808000000A06000000831
:104E00000808080800006060000000201008040284
:104E1000003E5149453E0000427F40000042615142
:104E20004946002141454B31001814127F100027DC
:104E300045454539003C4A4949300001710905039F
:104E400000364949493600064949291E00003636D0
:104E50000000000056360000000814224100001433
:104E60001414141400004122140800020151090610
:104E700000324959513E007C1211127C007F494991
:104E80004936003E41414122007F4141221C007FC2
:104E900049494941007F09090901003E4149497AD0
:104EA000007F0808087F0000417F4100002040414A
:104EB0003F01007F08142241007F40404040007FB6
:104EC000020C027F007F0408107F003E4141413EFA
:104ED000007F09090906003E4151215E007F091942
:104EE00029460046494949310001017F0101003F3F
:104EF0004040403F001F2040201F003F4038403FBF
:104F00000063140814630007087008070061514922
:104F1000454300007F41410000552A552A550000B5
:104F200041417F0000040201020400404040404033
:104F3000000001020400002054545478007F4844CB
:104F4000443800384444442000384444487F003802
:104F50005454541800087E0901020018A4A4A47C2B
:104F6000007F080404780000447D400000408084F5
:104F70007D00007F102844000000417F4000007C3D
:104F800004180478007C0804047800384444443849
:104F900000FC242424180018242418FC007C080495
:104FA000040800485454542000043F444020003C6E
:104FB0004040207C001C2040201C003C4030403CF5
:104FC000004428102844001CA0A0A07C0044645485
:104FD0004C44141414141414D3D0BBF0D1E6D1CC27
:104FE000CEEDD2ECD0A3D7BCB5E7D1B9B5F7CAB1F5
:104FF000D6D3A1E3CEC2CAAAB6C8D5FDB3A30004D6
:10500000040484E43C2724242424E4040404000449
:10501000020100FF0909090949897F000000000019
:1050200000C038000000FF00004020180000008091
:10503000814020100C0300030C1020408080008071
:105040007000FF1008209088874404948C800080B2
:10505000601807083000FF444440404444FF00808B
:105060007000FF1008FE424242FA424242FE0080B7
:105070006018070810FF50484641424C40FF00109E
:105080000C055555D5057F0555555505140C0010D3
:1050900010108AA96B352525ABE908101010000007
:1050A000007E92929292929292929E80E0000008EC
:1050B0008848281E0808080808FE08080808001084
:1050C00010D0FF9010804828090E08284888000456
:1050D0000300FF00018080432C102C4380800000DF
:1050E000020CE04020F84F4849FE484848080004B8
:1050F000047F000000FF2222223F22222220000003
:1051000000F888888888FF88888888F80000000070
:10511000001F080808087F888888889F80F00000A2
:1051200000FE0282828282FA828282828202008071
:10513000601F40404040407F404044584040004055
:1051400042CC0000FE829292FE929282FE0000000B
:10515000003F10887F001E1212125E807F00000048
:10516000FC848484FC001010101010FF101000004C
:105170003F1010103F0000010640807F000000201B
:10518000102CE7242400F01010FF1010F000000194
:1051900001017F211100070202FF02020700000047
:1051A000000C12120C0000000000000000000000C3
:1051B00000000000000000000000000000000010DF
:1051C00060028C0000FE9292929292FE0000000417
:1051D000047E01407E42427E427E42427E4000107A
:1051E00060028C00FE929292929292FE0000000465
:1051F000047E014448507F40407F504844400000B6
:1052000000FC242424FC252624FC2424240400401F
:10521000308F80844C55252525554C80808000009A
:105220000202C2020202FE828282828202000040E8
:1052300040407F4040407F40404040404040002050
:105240001808EAACA8A8AFA8A8ACEA08281800007B
:10525000003E02020202FF020212221E00000000B3
:10526000000000000000000000000000000000003E
:105270000000F800000000000000333000000000D3
:10528000100C06100C06000000000000000000409A
:10529000C07840C0784000043F04043F040400008C
:1052A0007088FC08300000001820FF211E0000F06C
:1052B00008F000E018000000211C031E211E000061
:1052C000F00888700000001E2123241927211010E7
:1052D000160E0000000000000000000000000000AA
:1052E0000000E01804020000000007182040000041
:1052F000020418E0000000004020180700000040F1
:105300004080F0804040000202010F0102020000D4
:105310000000F0000000000101011F010101000078
:105320000000000000000080B070000000000000DD
:105330000000000000000000010101010101010066
:1053400000000000000000003030000000000000FD
:1053500000000080601804006018060100000000D2
:10536000E010080810E000000F102020100F0000CF
:105370001010F8000000000020203F202000000056
:1053800070080808887000003028242221300000AE
:10539000300888884830000018202020110E0000B6
:1053A00000C02010F8000000070424243F2400005F
:1053B000F80888880808000019212020110E000034
:1053C000E0108888180000000F112020110E000046
:1053D000380808C83808000000003F00000000003E
:1053E00070880808887000001C222121221C0000FF
:1053F000E010080810E0000000312222110F000028
:105400000000C0C0000000000000303000000000BC
:10541000000080000000000000806000000000002C
:105420000080402010080000010204081020004005
:1054300040404040404000040404040404040000D0
:105440000810204080000000201008040201000025
:105450007048080808F0000000003036010000C065
:1054600030C828E810E0000718272423140B000098
:1054700000C038E0000000203C230202273820084A
:10548000F8888888700000203F202020110E00C07E
:1054900030080808083800071820202010080008E5
:1054A000F808080810E000203F202020100F000816
:1054B000F88888E8081000203F20202320180008E2
:1054C000F88888E8081000203F200003000000C092
:1054D0003008080838000007182020221E020008A3
:1054E000F808000008F808203F210101213F2000B2
:1054F0000808F8080800000020203F2020000000D5
:10550000000808F8080800C08080807F00000008BC
:10551000F888C028180800203F20012638200008FD
:10552000F8080000000000203F2020202030000864
:10553000F8F800F8F80800203F003F003F2000087E
:10554000F830C00008F808203F200007183F00E0AE
:105550001008080810E0000F10202020100F00088D
:10556000F808080808F000203F210101010000E0D0
:105570001008080810E0000F18242438504F0008C5
:10558000F8888888887000203F2000030C302000B5
:10559000708808080838000038202121221C0018D3
:1055A0000808F8080818000000203F200000000844
:1055B000F808000008F808001F202020201F00081D
:1055C00078880000C83808000007380E010000F88D
:1055D0000800F80008F800033C0700073C03000837
:1055E0001868808068180820302C03032C302008AD
:1055F00038C800C83808000000203F200000001014
:10560000080808C838080020382621202018000083
:105610000000FE020202000000007F404040000047
:105620000C30C000000000000000010638C000007F
:10563000020202FE000000004040407F0000000027
:10564000000402020204000000000000000000004C
:10565000000000000000008080808080808080004A
:105660000202040000000000000000000000000032
:10567000008080808000000019242222223F200820
:10568000F8008080000000003F112020110E000073
:1056900000008080800000000E11202020110000FA
:1056A0000000808088F800000E112020103F2000AC
:1056B00000808080800000001F2222222213000030
:1056C0008080F0888888180020203F20200000007B
:1056D00000808080808000006B9494949360000828
:1056E000F8008080800000203F210000203F200043
:1056F000809898000000000020203F20200000003B
:105700000000809898000000C08080807F00000822
:10571000F8000080808000203F24022D302000000F
:105720000808F8000000000020203F202000008032
:1057300080808080808000203F20003F20003F80CC
:1057400080008080800000203F210000203F20005A
:1057500000808080800000001F202020201F00800B
:105760008000808000000080FFA12020110E00003A
:1057700000008080808000000E112020A0FF80802B
:105780008080008080800020203F212000010000D8
:1057900000808080808000003324242424190000AD
:1057A0008080E0808000000000001F20200000803A
:1057B00080000000808000001F202020103F2080FB
:1057C0008080000080808000010E3008060100808B
:1057D000800080008080800F300C030C300F0000B0
:1057E000808000808080000020312E0E31200080DB
:1057F0008080000080808080818E7018060100000B
:10580000808080808080000021302C2221300000A8
:10581000000000807C020200000000003F404000C9
:10582000000000FF00000000000000FF000000007A
:1058300002027C800000000040403F0000000000A9
:105840000601010202040400000000000000000044
:105850000080C0E0F0F8FCF8F0E0C080000000003C
:1058600000000103070F1F0F0703010000000004E1
:10587000000008000000000000000200010000100D
:1058800002400000000000A00000000005400000F1
:10589000000000C8000000000C4000000000409C18
:1058A00000000000194000000020BCBE0000000005
:1058B00034400000BFC91B8E00000004B54000004A
:1058C000504BCFD06607E2CF010000006C410000D2
:1058D0003E8251AADFEEA73401000000D942000049
:1058E000DCB5A0E23A301F97FFFFFFFFB445000090
:1058F000FD25A0C8E9A3C14FFFFFFFFFFF3F000048
:105900000000008000000000FF3F00000000008059
:10591000000000007B2274656D70657261747572A1
:1059200065223A2025302E32662C202268756D695A
:1059300064697479223A2025302E32662C20227335
:105940006D6F6B65223A2025642C2022666C616D98
:1059500065223A2025647D0094590008000000204B
:105960004000000028010008D45900084000002031
:1059700058040000440100081C000000430000001F
:10598000F8FFFFFF0C0000000E0000000F000000F9
:105990002E000000000000000000000000A24A04E9
:1059A00000000000000000000102030406070809CF
:1059B00000000000000000000000000000000000E7
:1059C00000000001020304010203040607080902A3
:0459D00004060800C1
:04000005080000ED02
:00000001FF
