:020000040800F2
:10000000F00A0020D5010008190C000801090008B9
:10001000150C00083D060008F71800080000000055
:100020000000000000000000000000006112000855
:10003000E907000800000000E9100008B9130008F3
:10004000EF010008EF010008EF010008EF010008D0
:10005000EF010008EF010008EF010008EF010008C0
:10006000EF010008EF010008EF010008EF010008B0
:10007000EF010008EF010008EF010008EF010008A0
:10008000EF010008EF010008EF010008EF01000890
:10009000EF010008EF010008EF010008EF01000880
:1000A000EF010008EF010008EF010008EF01000870
:1000B000EF0100081D14000839140008EF010008C2
:1000C000EF010008EF010008EF010008EF01000850
:1000D000EF010008C9150008EF0100083D160008EF
:1000E000EF010008EF010008EF010008EF01000830
:1000F000EF010008EF010008EF010008EF01000820
:10010000EF010008EF010008EF010008EF0100080F
:10011000EF010008EF010008EF010008EF010008FF
:10012000EF010008EF010008EF010008EF010008EF
:1001300000F002F800F03FF80AA090E8000C8244BA
:100140008344AAF10107DA4501D100F034F8AFF297
:10015000090EBAE80F0013F0010F18BFFB1A43F0A5
:100160000103184794230000B4230000103A24BF71
:1001700078C878C1FAD8520724BF30C830C144BF0C
:1001800004680C607047000000230024002500264E
:10019000103A28BF78C1FBD8520728BF30C148BFEA
:1001A0000B607047642900F04D80002070471FB538
:1001B0001FBD10B510BD00F011FA1146FFF7F7FF93
:1001C00001F0ECFB00F02FFA03B4FFF7F2FF03BCE1
:1001D00001F09AFB0948804709480047FEE7FEE71F
:1001E000FEE7FEE7FEE7FEE7FEE7FEE7FEE7FEE7E7
:1001F00004480549054A064B70470000BD13000836
:1002000031010008F0040020F00A0020F006002070
:10021000F0060020704700000FB41CB5084B06AA7A
:100220007B4469460090059800F099F90446002047
:10023000694600F0A7F920461CBC5DF814FB0000DD
:10024000610300002DE9F04106460024106875297D
:10025000314616A510D0AFF30080002802DA4042E4
:1002600013A507E031688A0701D512A502E0490706
:1002700004D511A5012401E0AFF3008000210A227A
:1002800006F1240709E0B0FBF2FCB0FBF2F302FB3D
:100290001C00303078541846491C0028F3D12346FE
:1002A0002A463046BDE8F04100F0FAB800000000F0
:1002B0002D0000002B000000200000002DE9F05F61
:1002C000894604464FF0000ADFF874B1FB44C0F8D9
:1002D00020A02046E1688847002874D0252806D051
:1002E000D4E901219047206A401C2062F1E70026F2
:1002F0005F462046E16888472028054607DB312D08
:1003000005D2781910F8200C08B10643F1E7B007C0
:1003100001D526F00406C4F81CA00027C4F818A0D4
:100320002A2D09D0284601F0E8FA38B304EB8708F3
:10033000303DC8F8185019E059F8041B204604EB6A
:1003400087029161E1688847012F054618D1E0696D
:10035000002820DA26F020061DE0D8F8180000EB6F
:10036000800005EB40003038C8F818002046E168EE
:100370008847054601F0C1FA0028EED1012F0AD0C6
:100380002E2D08D12046E16888477F1C0546022FA4
:1003900046F02006C4DBA069002803DA404246F09C
:1003A0000106A061F00701D026F010066C2D0BD0DD
:1003B000682D09D04C2D39D06A2D35D0742D35D00B
:1003C0007A2D33D016E038E0E1682F462046884782
:1003D000B842054609D16C2F26D04FF48060E16801
:1003E000064320468847054604E06C2F1AD04FF498
:1003F000807006430DB3A5F14100192802D82035BD
:1004000046F400664A462946204626604E46FFF7D7
:10041000C9FE80B101280BD0F61D26F0070000F1BF
:10042000080956E74020E4E78020D8E70020D6E717
:1004300006F104094DE7284652E7206ABDE8F09F1F
:100440001722000002F0FF0343EA032242EA0242BD
:1004500000F002B84FF000020429C0F0128010F042
:10046000030C00F09680CCF1040CBCF1020F18BF15
:1004700000F8012BA8BF20F8022BA1EB0C0100F023
:1004800088B85FEAC17C24BF00F8012B00F8012B7B
:1004900048BF00F8012B704770477047704770479E
:1004A0002DE9F0470D4699469246044600F124088E
:1004B0000168880604D5E06921F01001216000E0A0
:1004C0000120A84201DD471B00E00027A1697A193D
:1004D00002EB0900081AA0612078C00602D4204669
:1004E000AFF30080002608E0D4E901211AF80600E5
:1004F0009047206A401C761C20624E45F4DB207831
:10050000C0060AD52046AFF3008006E0D4E90121F9
:1005100030209047206A401C2062381EA7F1010756
:10052000F4DC07E0D4E9012118F805009047206ABF
:10053000401C2062281EA5F10105F3DC2046AFF324
:1005400000802078000602D50220BDE8F087012057
:10055000FBE7000001694A1C02610878704700B59A
:100560008FB0CDE901310021059105497944CDE9EC
:10057000031011466846FFF7A1FE0FB000BD000052
:10058000E5FFFFFF0A6802F8010B0A6070474FF0B1
:10059000000200B5134694469646203922BFA0E8D3
:1005A0000C50A0E80C50B1F12001BFF4F7AF0907DF
:1005B00028BFA0E80C5048BF0CC05DF804EB8900D0
:1005C00028BF40F8042B08BF704748BF20F8022B13
:1005D00011F0804F18BF00F8012B7047754600F0EE
:1005E00029F8AE4605006946534620F007008546C7
:1005F00018B020B5FFF7FCFDBDE820404FF0000625
:100600004FF000074FF000084FF0000B21F00701FA
:10061000AC46ACE8C009ACE8C009ACE8C009ACE83D
:10062000C0098D4670470446AFF300802046FFF7AF
:10063000CBFD0000004870479004002000BFFEE79B
:1006400021B1026842F00102026004E002684FF644
:10065000FE731A400260704701684FF6FE72114047
:1006600001600021016041608160C1604B498842A6
:1006700008D14A490839496841F00F01474A083A08
:1006800051608AE045491431884208D1434908390C
:10069000496841F0F001414A083A51607DE03F4924
:1006A0002831884208D13D490839496841F47061D0
:1006B0003A4A083A516070E038493C31884208D1E2
:1006C00036490839496841F47041344A083A516062
:1006D00063E032495031884208D1304908394968CD
:1006E00041F470212D4A083A516056E02B4964319B
:1006F000884208D129490839496841F47001274ADC
:10070000083A516049E025497831884208D12349A7
:100710000839496841F07061204A083A51603CE06C
:100720001F49884206D1011F096841F00F01021FCD
:10073000116032E01A491431884208D11849091F62
:10074000096841F0F001164A121F116025E01449B2
:100750002831884208D11249091F096841F47061A3
:100760000F4A121F116018E00D493C31884208D130
:100770000B49091F096841F47041094A121F1160B1
:100780000BE007495031884207D10549091F096824
:1007900041F47021024A121F1160704708000240A4
:1007A000080402400146486880B2704710B5002234
:1007B000026847F6F0739A430C6A8B6823430C690E
:1007C00023434C6923438C692343CC6923434C6AFC
:1007D00023438C6A23431A430260CB6843600B684F
:1007E00083604B68C36010BD70472DE9F04102463D
:1007F00000250026002000230024002791F803C0D4
:100800000CF00F0591F803C00CF0100CBCF1000FB8
:1008100003D091F802C04CEA050591F800C0BCF184
:10082000000F31D0146800202BE04FF0010C0CFABF
:1008300000F3B1F800C00CEA03069E4220D1830009
:100840004FF00F0C0CFA03F7BC4305FA03FC4CEA1B
:10085000040491F803C0BCF1280F06D14FF0010C3D
:100860000CFA00FCC2F814C00AE091F803C0BCF115
:10087000480F05D14FF0010C0CFA00FCC2F810C073
:10088000401C0828D1D31460B1F800C0BCF1FF0FA0
:1008900034DD546800202EE000F1080C4FF0010810
:1008A00008FA0CF3B1F800C00CEA03069E4221D10D
:1008B00083004FF00F0C0CFA03F7BC4305FA03FC5E
:1008C0004CEA040491F803C0BCF1280F05D100F1F3
:1008D000080C08FA0CF8C2F8148091F803C0BCF1B7
:1008E000480F07D100F1080C4FF0010808FA0CF886
:1008F000C2F81080401C0828CED35460BDE8F081B7
:1009000000BFFEE700B585B00121480500F0FEFB01
:100910000121082000F01AFCC020ADF810000320CF
:100920008DF812001C208DF8130004A91148FFF760
:100930005CFF114800F046F80020ADF804004BF6CB
:10094000FF70ADF806008820ADF808004FF4806015
:10095000ADF80A000001ADF80C00084800906946A7
:10096000054800F081F80121034800F01EF805B0A9
:1009700000BD0000000C014000540040801A060039
:1009800070B502460024002500230020958A138BB1
:100990001B0445EA030626F07F4404EA01068E4262
:1009A00001D1012000E0002070BD21B1028842F099
:1009B0000102028004E002884FF6FE731A400280B2
:1009C0007047000010B504460B48844209D101214C
:1009D000480500F0ABFB00214FF4001000F0A6FB2F
:1009E00008E00121880500F0A1FB00214FF4800000
:1009F00000F09CFB10BD00000054004021B10288B3
:100A000042F48072028004E002884FF6FF631A40CD
:100A10000280704721B1028842F40072028004E033
:100A200002884FF6FF531A40028070470CB5024609
:100A3000002000230193009300920B0F019321F0FB
:100A40007F41019B1BB1009B1433009303E0090C11
:100A5000009B18330093009B1B680B400BB10120D7
:100A600000E000200CBD00002DE9F04385B00446F5
:100A70000D460026B1460427DFF8CC80A6884FF645
:100A8000C0700640684600F081FBDDF808802F4802
:100A9000B8FBF0F01FFA80F946EA0906A680208824
:100AA0004FF6FE71084020800026294928688842B8
:100AB0000CD828684000B8FBF0F087B2042F00DAA9
:100AC00004273E4309F10100208427E0E8884BF623
:100AD000FF71884206D1286800EB4000B8FBF0F0B7
:100AE00087B209E0286800EBC00101EB0010B8FBF9
:100AF000F0F087B247F48047C7F30B0008B947F01E
:100B0000010747F4004006434FF4967009FB00F0DC
:100B10004FF47A7190FBF1F0401C2084A68320886A
:100B200040F00100208026884FF6F5300640A88866
:100B30006989084306432680A889298908432081BA
:100B400005B0BDE8F083000000127A0040420F00BB
:100B5000A086010012B141F0010102E04FF6FE73E0
:100B600019400182704701827047000070B5044649
:100B70000E46154600BF4FF400311C48FFF756FFE4
:100B80000028F8D101211948FFF738FF00BF1849A4
:100B90001648FFF7F5FE0028F9D000222946134831
:100BA000FFF7D8FF00BF13491048FFF7E9FE002800
:100BB000F9D021460D48FFF7D6FF00BF0D49891C2B
:100BC0000A48FFF7DDFE0028F8D031460748FFF756
:100BD000CAFF00BF0749891C0448FFF7D1FE00285F
:100BE000F8D001210148FFF715FF70BD0054004007
:100BF000010003008200070000BF0549098801F0D9
:100C000040010029F9D00249091D08807047000001
:100C10000048004000BFFEE77047000070B50021AB
:100C200000230F22C47804B3154C246804F4E06454
:100C3000C4F5E064210AC1F10403CA40447804FA0F
:100C400003F184781440214309010E4C0678A15524
:100C5000047804F01F050124AC4005786D11AD0047
:100C600005F1E025C5F8004109E0047804F01F050E
:100C70000124AC40044D0678761145F8264070BD3D
:100C80000CED00E000E400E080E100E070B500243D
:100C900015E004F1B001C8B200F0D5F9012000F070
:100CA000D2F9102000F0CFF9002504E0002000F078
:100CB000D2F9681CC5B2802DF8DB601CC4B2082CC8
:100CC000E7DB70BD70B50646002415E004F1B00105
:100CD000C8B200F0B8F9012000F0B5F9102000F01A
:100CE000B2F9002504E0304600F0B5F9681CC5B241
:100CF000802DF8DB601CC4B2082CE7DB70BD10B59A
:100D0000AE2000F0A0F9D52000F09DF9802000F081
:100D10009AF9A82000F097F93F2000F094F9D32029
:100D200000F091F9002000F08EF9402000F08BF9DE
:100D3000A12000F088F9C82000F085F9DA2000F041
:100D400082F9122000F07FF9812000F07CF9CF2099
:100D500000F079F9D92000F076F9F12000F073F96C
:100D6000DB2000F070F9302000F06DF9A42000F0D5
:100D70006AF9A62000F067F98D2000F064F91420CC
:100D800000F061F9AF2000F05EF90020FFF79AFF54
:100D90000021084600F042F910BD2DE9F05F8246BF
:100DA0000F4690469946DDF828B00024002501261C
:100DB0006CE00024012611E019F8040018F8051071
:100DC000884209D109EB0400407808EB0501497815
:100DD000884201D1260105E0A01CC4B219F8040024
:100DE0007F28E9DC00BFBAF1760F03DD4FF0000A7F
:100DF000781CC7B23946504600F010F9012E22D0B7
:100E00003946504600F00AF9002407E01BF80600B6
:100E100000F021F9701C86B2601CC4B2102CF5DB06
:100E200007F10800C1B2504600F0F8F8002407E0CE
:100E30001BF8060000F00FF9701C86B2601CC4B2EB
:100E4000102CF5DB1CE0681CC5B23946504600F09A
:100E5000E5F8002404E0002000F0FDF8601CC4B2B6
:100E6000102CF8DB781CC1B2504600F0D7F80024F3
:100E700004E0002000F0EFF8601CC4B2102CF8DB96
:100E80000AF1100000F0FF0AA81CC5B218F805000E
:100E900000288ED1BDE8F09F2DE9F0470446884632
:100EA000154699464FF0000A002600271FE0E85D2E
:100EB000203800F0FF0A7E2C04DD002408F1010038
:100EC00000F0FF084146204600F0A8F8002608E0A0
:100ED0000AEB4A0109EB4101885D00F0BCF8701C87
:100EE000C6B2062EF4DBA01DC4B2781CC7B2E85D02
:100EF0000028DCD1BDE8F0872DE9F04706460F4613
:100F00009046994600250024A24630E018F80A00D1
:100F10002038C5B2782E02DD0026781CC7B23946CB
:100F2000304600F07BF8002406E009EB0511085D6F
:100F300000F091F8601CC4B2082CF6DB07F1080041
:100F4000C1B2304600F06AF8002407E009EB051151
:100F50002144087A00F07FF8601CC4B2082CF5DB4D
:100F600006F10800C6B20AF1010000F0FF0A18F805
:100F70000A000028CAD1BDE8F08700002DE9FC472F
:100F800006468846154699460A9F002438E0285DA3
:100F90007F2817DD285D8DF80400281940788DF82A
:100FA000050000208DF806001848194B01AA41469B
:100FB00000903046FFF7F1FE06F11000C6B2A01C0B
:100FC000C4B21DE0285D8DF8040000208DF80500F6
:100FD000012F09D10F4B01AA41463046FFF78CFF84
:100FE00006F10800C6B209E0032F07D10A4B01AA97
:100FF00041463046FFF750FFB01DC6B2601CC4B278
:10100000285D0028C3D1BDE8FC870000771E0008DA
:10101000701E0008D71E0008481C000870B5044662
:101020000D46B02101EBE501C8B200F00CF810212B
:1010300041EA141000F007F804F00F0141F001003C
:1010400000F001F870BD10B504467822214600205A
:10105000FFF78CFD10BD10B50446782221464020D4
:10106000FFF784FD10BD000010B5044600F014F930
:1010700000F0F8F80120FFF7BFFD0020FFF7BCFDEE
:101080000020FFF7B9FDC82000F062FC144800887A
:1010900000F4004008B313480078EF281AD1114833
:1010A0004078012816D10F488079072812D10D48C1
:1010B000807800060B49C97800EB0140094909799D
:1010C00000EB0120074949790844206000200449C9
:1010D000088010BD0020024908800120F9E70000C7
:1010E0002C000020700100207047000029B1064A42
:1010F00052690243044B5A6104E0034A5269824335
:10110000014B5A61704700000010024029B1064AA5
:10111000D2690243044BDA6104E0034AD269824394
:10112000014BDA61704700000010024029B1064A05
:1011300012690243044B1A6104E0034A12698243B4
:10114000014B1A61704700000010024029B1064AA5
:1011500092690243044B9A6104E0034A9269824314
:10116000014B9A61704700000010024029B1064A05
:10117000D2680243044BDA6004E0034AD268824337
:10118000014BDA60704700000010024030B50021CA
:101190000022002400232D4D6D6805F00C0121B1C3
:1011A000042905D0082923D105E0294D056022E056
:1011B000274D05601FE0254D6D6805F47012234D25
:1011C0006D6805F48034022505EB92421CB9214D6F
:1011D000554305600BE01D4D6D6805F400351DB1EC
:1011E0001C4D5543056002E0194D5543056002E072
:1011F000174D056000BF00BF144D6D6805F0F0018C
:101200000909154D6B5C0568DD4045600F4D6D6843
:1012100005F4E061090A104D6B5C4568DD408560AE
:101220000A4D6D6805F46051C90A0B4D6B5C456849
:10123000DD40C560054D6D6805F44041890B074DE3
:101240006B5CC568B5FBF3F5056130BD001002406D
:1012500000127A0000093D002E0000203E00002010
:101260007047000010B50B490968080EFFF7C4FC71
:1012700008480068C0F30740FFF7BEFC0548008837
:10128000C0F30720FFF7B8FC02490878FFF7B4FC69
:1012900010BD00001400002010B5EF20FFF7ACFCDB
:1012A0000120FFF7A9FC10BD10B500F001F810BD3A
:1012B0000CB50020019000903348006840F4803065
:1012C0003149086000BF3048006800F400300090E9
:1012D0000198401C0190009818B90198B0F5A06FD2
:1012E000F1D12948006800F4003010B101200090CD
:1012F00001E0002000900098012843D123480068B5
:1013000040F01000214908600846006820F0030002
:1013100008600846006840F0020008601A4840680B
:10132000194948600846406848600846406840F4EB
:10133000806048600846406820F47C104860084699
:10134000406840F4E81048600846006840F080704B
:10135000086000BF0C48006800F000700028F9D059
:101360000948406820F00300074948600846406883
:1013700040F00200486000BF0348406800F00C00E5
:101380000828F9D10CBD00000010024000200240E6
:10139000042808D14FF0E021096941F004014FF021
:1013A000E022116107E04FF0E021096921F004011A
:1013B0004FF0E022116170477047000010B51348EC
:1013C000006840F001001149086008464068104973
:1013D00008400E494860084600680E4908400B491D
:1013E00008600846006820F48020086008464068CD
:1013F00020F4FE0048604FF41F008860FFF754FFA0
:101400004FF000600449086010BD00000010024069
:101410000000FFF8FFFFF6FE08ED00E010B5012127
:10142000044800F062F818B10121024800F04EF8BB
:1014300010BD00000004004010B50121094800F073
:1014400054F868B10848008840F400400649088014
:101450000121044800F03AF80021024800F039F870
:1014600010BD0000000800402C0000207FB505469C
:101470000C4601210420FFF749FEADF80450ADF8F9
:1014800000400020ADF80600ADF8020069460E48A5
:1014900000F048F8012211460B4800F037F801210E
:1014A000094800F016F81E208DF80C0000208DF879
:1014B0000D0002208DF80E0001208DF80F0003A80A
:1014C000FFF7ACFB7FBD000000080040CA4302826A
:1014D000704721B1028842F00102028004E00288D4
:1014E0004FF6FE731A400280704730B50246002066
:1014F00000230024158A05EA0103958905EA010401
:1015000013B10CB1012000E0002030BD1AB1838975
:101510000B43838102E083898B43838170478184FD
:1015200070470000002202881D4B98420ED01D4BD0
:1015300098420BD0B0F1804F08D01B4B984205D099
:101540001A4B984202D01A4B984204D14FF68F732F
:101550001A404B881A43174B984207D0164B9842B3
:1015600004D04FF6FF431A40CB881A4302808B8881
:1015700083850B8803850A4B98420BD0094B984210
:1015800008D00E4B984205D00D4B984202D00D4B1F
:10159000984201D10B7A03860123838270470000B1
:1015A000002C0140003401400004004000080040CD
:1015B000000C0040001000400014004000400140BA
:1015C000004401400048014010B5002440F225517C
:1015D000154800F0CFF860B1134800F087F9C1B2A8
:1015E000124802880088401C104B18801048815413
:1015F00018E040F224410C4800F0BCF890B10A48D1
:1016000000880948001D008800210A48FFF718F8E3
:101610000120094908700748FFF7C4F8C0F5967023
:101620000249088010BD0000003801402800002059
:1016300044000020580002402A00002010B540F26B
:101640002551164800F096F8F8B1144800F04EF90C
:10165000C4B21348008800F40040B0B910480088B4
:10166000B0F5C87F12DA00210E48FFF758FF0C488A
:10167000008818B901210B48FFF72BFF084908889B
:10168000411C074A118008490C5405E004480088B1
:1016900040F400400249088010BD000000480040AE
:1016A0002C000020000800407001002021B1828938
:1016B00042F40052828104E082894DF6FF731A40A1
:1016C000828170471AB1838A0B43838202E0838A46
:1016D0008B4383827047000010B504462048844243
:1016E00009D101218803FFF741FD00214FF480401B
:1016F000FFF73CFD32E01B48844209D10121480438
:10170000FFF714FD00214FF40030FFF70FFD25E037
:101710001548844209D101218804FFF707FD002103
:101720004FF48020FFF702FD18E01048844209D1F1
:101730000121C804FFF7FAFC00214FF40020FFF755
:10174000F5FC0BE00A48844208D101210805FFF7A7
:10175000EDFC00214FF48010FFF7E8FC10BD000005
:10176000003801400044004000480040004C004068
:101770000050004070B502460024002300250020E0
:1017800040F66A16B14200D100BFC1F3421501F024
:101790001F03012606FA03F3012D02D19689334077
:1017A00006E0022D02D1168A334001E0968A3340CA
:1017B0000C12012606FA04F41688344013B10CB159
:1017C000012000E0002070BDF0B503460024002693
:1017D0000025002040F66A17B94200D100BF184624
:1017E000C1F3421401F01F06012707FA06F5012C88
:1017F00001D10C3004E0022C01D1103000E0143093
:101800001AB107682F43076002E00768AF4307601B
:10181000F0BD00002DE9F04786B005460E460024D5
:10182000A24600BFA1460027B08900B100BF2F46E5
:101830002C8A4CF6FF700440F08804432C82AC895B
:101840004EF6F3100440B08831890843718908438B
:101850000443AC81AC8A4FF6FF400440B089044396
:10186000AC8201A8FFF792FC1F48874202D1DDF845
:1018700010A001E0DDF80CA0A88900F4004040B100
:101880000AEBCA0000EB0A1031684900B0FBF1F81E
:1018900007E00AEBCA0000EB0A1031688900B0FBD0
:1018A000F1F86420B8FBF0F004012009642101FB89
:1018B0001089A88900F4004040B1322000EBC90033
:1018C000B0FBF1F000F00700044308E0322000EB29
:1018D00009106421B0FBF1F000F00F0004432C81EB
:1018E00006B0BDE8F0870000003801400146888856
:1018F000C0F30800704700BFFEE730380A2801D265
:10190000012070470020704700BF704710B56FF08E
:101910000400FFF73DFD0A4800680A49B0FBF1F0FA
:10192000094908700846007800EB4001C1EBC0107F
:101930004FF6FF7101EAC0000449088010BD0000A5
:101940000000002000127A001E000020200000206D
:101950000146114A12884A434FF0E0235A6100229F
:101960009A611A46126942F001021A6100BF4FF0F3
:10197000E022106900F001021AB100F48032002A5E
:10198000F5D04FF0E022126922F001024FF0E0237F
:101990001A6100229A6170472000002086B0FFF78C
:1019A000B5FFFEF7AFFFFFF7AAF9FFF76FF94FF4A6
:1019B000165000F04BF84FF4E13000F0DDF8002055
:1019C0000290039004900590002419E02246611CC7
:1019D0008CB217A102A8FEF71FFC0120022302AA65
:1019E000002100900846FFF7C9FA1022002102A842
:1019F000FEF728FD4FF47A70FFF7AAFFFFF746F9CC
:101A00000E48FFF731FB0028E0D110E00CA102A83E
:101A1000FEF702FC0120022302AA10210090002000
:101A2000FFF7ACFA1022002102A8FEF70BFDEDE74C
:101A3000C1ACBDD3D6D02E2E2E25640014000020BC
:101A4000C1ACBDD3D6D04F4B0000000010B586B05E
:101A50000446012144F20400FFF778FB4FF40070C4
:101A6000ADF8140003208DF8160018208DF817002B
:101A700005A92948FEF7B9FE4FF48060ADF81400BF
:101A800004208DF8170005A92348FEF7AEFE252097
:101A90008DF8000003208DF801008DF80200012070
:101AA0008DF803006846FFF7B9F801940020ADF8FF
:101AB0000800ADF80A00ADF80C00ADF810000C20DD
:101AC000ADF80E0001A91548FFF7A4FE002240F270
:101AD00026611248FFF778FE002240F225510F4898
:101AE000FFF772FE012240F224410C48FFF76CFE22
:101AF000012240210948FFF7E5FD01210748FFF7D2
:101B0000D5FD4FF49673064A0449091D054800F0B7
:101B10000BF806B010BD000000080140003801407D
:101B20004400002058000240F0B58BB007460C4638
:101B300015461E4601210846FFF7D8FA3846FEF73B
:101B40008BFD009401950020029003960490802064
:101B5000059000200690079008904FF4405009909F
:101B600000200A9069463846FEF720FE01213846DB
:101B7000FEF766FD0BB0F0BD10B586B0044601213E
:101B80000820FFF7E3FA01218804FFF7BFFA2A488B
:101B9000FFF7A2FD4FF48060ADF8100003208DF830
:101BA000120018208DF8130004A92448FEF71DFE2A
:101BB0004FF40060ADF8100004208DF8130004A964
:101BC0001E48FEF712FE00940020ADF80400ADF8A8
:101BD0000600ADF80800ADF80C000C20ADF80A00C6
:101BE00069461548FFF716FE01211348FFF75EFD11
:101BF000012240F225511048FFF7E6FD27208DF81D
:101C0000140002208DF8150003208DF81600012025
:101C10008DF8170005A8FFF701F841F61F41632072
:101C2000FFF724FC00200649088000210548FFF743
:101C300050FC06B010BD000000480040000C014000
:101C40002C00002000080040000000000000000000
:101C5000002F000000000700070000147F147F140D
:101C600000242A7F2A120062640813230036495593
:101C7000225000000503000000001C22410000006B
:101C800041221C000014083E08140008083E080801
:101C9000000000A06000000808080808000060605C
:101CA0000000002010080402003E5149453E00009B
:101CB000427F4000004261514946002141454B317D
:101CC000001814127F10002745454539003C4A4949
:101CD00049300001710905030036494949360006BB
:101CE0004949291E00003636000000005636000023
:101CF000000814224100001414141414000041229E
:101D0000140800020151090600324959513E007C75
:101D10001211127C007F49494936003E414141225F
:101D2000007F4141221C007F49494941007F090948
:101D30000901003E4149497A007F0808087F0000F8
:101D4000417F4100002040413F01007F08142241B3
:101D5000007F40404040007F020C027F007F04086B
:101D6000107F003E4141413E007F09090906003EC7
:101D70004151215E007F09192946004649494931F0
:101D80000001017F0101003F4040403F001F204013
:101D9000201F003F4038403F0063140814630007D1
:101DA0000870080700615149454300007F41410028
:101DB00000552A552A55000041417F0000040201C8
:101DC00002040040404040400000010204000020A6
:101DD00054545478007F48444438003844444420E4
:101DE00000384444487F00385454541800087E0991
:101DF00001020018A4A4A47C007F08040478000059
:101E0000447D4000004080847D00007F1028440015
:101E10000000417F4000007C04180478007C080426
:101E2000047800384444443800FC24242418001862
:101E3000242418FC007C080404080048545454204E
:101E400000043F444020003C4040207C001C2040D7
:101E5000201C003C4030403C004428102844001C1A
:101E6000A0A0A07C004464544C4414141414141412
:101E7000C1ACBDD3D6D000404042CC000444645C29
:101E800047F444444404000040201F204444444498
:101E9000447F4444444400101010FF1050445465E3
:101EA000C64464544440000444827F0182824A56FE
:101EB0002322524E8202000000F010101010FF107A
:101EC000101010F000000000000F04040404FF04D0
:101ED0000404040F000000000000000000000000E7
:101EE00000000000000000000000F80000000000FA
:101EF0000000333000000000100C06100C0600003B
:101F00000000000000000040C07840C0784000049D
:101F10003F04043F040400007088FC083000000007
:101F20001820FF211E0000F008F000E0180000005B
:101F3000211C031E211E0000F00888700000001EF6
:101F40002123241927211010160E00000000000084
:101F500000000000000000000000E0180402000083
:101F60000000071820400000020418E000000000F4
:101F700040201807000000404080F08040400002F0
:101F800002010F01020200000000F0000000000149
:101F900001011F010101000000000000000000809D
:101FA000B070000000000000000000000000000011
:101FB000010101010101010000000000000000001A
:101FC00030300000000000000000008060180400B5
:101FD0006018060100000000E010080810E0000092
:101FE0000F102020100F00001010F800000000005B
:101FF00020203F20200000007008080888700000A2
:102000003028242221300000300888884830000021
:1020100018202020110E000000C02010F800000041
:10202000070424243F240000F808888808080000DA
:1020300019212020110E0000E010888818000000EF
:102040000F112020110E0000380808C838080000C1
:1020500000003F0000000000708808088870000041
:102060001C222121221C0000E010080810E00000C2
:1020700000312222110F00000000C0C0000000004B
:102080000000303000000000000080000000000070
:102090000080600000000000008040201008000068
:1020A000010204081020004040404040404000042D
:1020B0000404040404040000081020408000000010
:1020C00020100804020100007048080808F0000011
:1020D00000003036010000C030C828E810E00007DA
:1020E00018272423140B000000C038E00000002053
:1020F0003C23020227382008F888888870000020D6
:102100003F202020110E00C03008080808380007C2
:102110001820202010080008F808080810E0002007
:102120003F202020100F0008F88888E808100020C1
:102130003F20202320180008F88888E80810002095
:102140003F200003000000C03008080838000007E6
:10215000182020221E020008F808000008F80820B5
:102160003F210101213F20000808F8080800000075
:1021700020203F2020000000000808F8080800C0C8
:102180008080807F00000008F888C02818080020A0
:102190003F20012638200008F80800000000002039
:1021A0003F20202020300008F8F800F8F808002030
:1021B0003F003F003F200008F830C00008F808202A
:1021C0003F200007183F00E01008080810E0000F4B
:1021D00010202020100F0008F808080808F0002040
:1021E0003F210101010000E01008080810E0000F85
:1021F00018242438504F0008F888888888700020F8
:102200003F2000030C3020007088080808380000C8
:1022100038202121221C00180808F808081800009E
:1022200000203F2000000008F808000008F808001F
:102230001F202020201F000878880000C8380800D0
:102240000007380E010000F80800F80008F8000345
:102250003C0700073C0300081868808068180820C5
:10226000302C03032C30200838C800C83808000080
:1022700000203F2000000010080808C8380800208F
:1022800038262120201800000000FE020202000073
:1022900000007F40404000000C30C0000000000003
:1022A0000000010638C00000020202FE000000002B
:1022B0004040407F000000000004020202040000D1
:1022C000000000000000000000000000000000808E
:1022D0008080808080808000020204000000000076
:1022E00000000000000000000080808080000000EE
:1022F00019242222223F2008F800808000000000DC
:102300003F112020110E000000008080800000009E
:102310000E112020201100000000808088F80000AD
:102320000E112020103F20000080808080000000DF
:102330001F222222221300008080F0888888180043
:1023400020203F202000000000808080808000004E
:102350006B94949493600008F800808080000020C3
:102360003F210000203F20008098980000000000DE
:1023700020203F20200000000000809898000000EE
:10238000C08080807F000008F800008080800020EE
:102390003F24022D302000000808F8000000000053
:1023A00020203F20200000808080808080800020CE
:1023B0003F20003F20003F80800080808000002080
:1023C0003F210000203F200000808080800000002E
:1023D0001F202020201F00808000808000000080BF
:1023E000FFA12020110E00000000808080800000EE
:1023F0000E112020A0FF808080800080808000203F
:10240000203F2120000100000080808080800000AB
:1024100033242424241900008080E0808000000000
:1024200000001F202000008080000000808000004D
:102430001F202020103F20808080000080808000AE
:10244000010E300806010080800080008080800F2F
:10245000300C030C300F0000808000808080000072
:1024600020312E0E3120008080800000808080800E
:10247000818E7018060100008080808080800000BE
:1024800021302C2221300000000000807C0202005C
:10249000000000003F404000000000FF000000007E
:1024A000000000FF0000000002027C80000000002D
:1024B00040403F0000000000060101020204040049
:1024C00000000000000000000080C0E0F0F8FCF810
:1024D000F0E0C0800000000000000103070F1F0FA4
:1024E00007030100000000040000080000000000D5
:1024F0000000020001000010182500080000002064
:10250000440000006C0100085C2500084400002025
:10251000AC0A00008801000800A24A040000000084
:10252000000000000102030406070809FFFFFFFF87
:10253000000000000000000000000000000000009B
:10254000000000000000000000000102030401027E
:0C25500003040607080902040608000046
:0400000508000131BD
:00000001FF
